{"abi":[{"type":"constructor","inputs":[{"name":"pm","type":"address","internalType":"contract IPoolManager"}],"stateMutability":"nonpayable"},{"type":"function","name":"acc0PerShare","inputs":[{"name":"","type":"bytes32","internalType":"PoolId"}],"outputs":[{"name":"","type":"uint256","internalType":"uint256"}],"stateMutability":"view"},{"type":"function","name":"acc1PerShare","inputs":[{"name":"","type":"bytes32","internalType":"PoolId"}],"outputs":[{"name":"","type":"uint256","internalType":"uint256"}],"stateMutability":"view"},{"type":"function","name":"afterAddLiquidity","inputs":[{"name":"sender","type":"address","internalType":"address"},{"name":"key","type":"tuple","internalType":"struct PoolKey","components":[{"name":"currency0","type":"address","internalType":"Currency"},{"name":"currency1","type":"address","internalType":"Currency"},{"name":"fee","type":"uint24","internalType":"uint24"},{"name":"tickSpacing","type":"int24","internalType":"int24"},{"name":"hooks","type":"address","internalType":"contract IHooks"}]},{"name":"params","type":"tuple","internalType":"struct ModifyLiquidityParams","components":[{"name":"tickLower","type":"int24","internalType":"int24"},{"name":"tickUpper","type":"int24","internalType":"int24"},{"name":"liquidityDelta","type":"int256","internalType":"int256"},{"name":"salt","type":"bytes32","internalType":"bytes32"}]},{"name":"delta","type":"int256","internalType":"BalanceDelta"},{"name":"feesAccrued","type":"int256","internalType":"BalanceDelta"},{"name":"hookData","type":"bytes","internalType":"bytes"}],"outputs":[{"name":"","type":"bytes4","internalType":"bytes4"},{"name":"","type":"int256","internalType":"BalanceDelta"}],"stateMutability":"nonpayable"},{"type":"function","name":"afterDonate","inputs":[{"name":"sender","type":"address","internalType":"address"},{"name":"key","type":"tuple","internalType":"struct PoolKey","components":[{"name":"currency0","type":"address","internalType":"Currency"},{"name":"currency1","type":"address","internalType":"Currency"},{"name":"fee","type":"uint24","internalType":"uint24"},{"name":"tickSpacing","type":"int24","internalType":"int24"},{"name":"hooks","type":"address","internalType":"contract IHooks"}]},{"name":"amount0","type":"uint256","internalType":"uint256"},{"name":"amount1","type":"uint256","internalType":"uint256"},{"name":"hookData","type":"bytes","internalType":"bytes"}],"outputs":[{"name":"","type":"bytes4","internalType":"bytes4"}],"stateMutability":"nonpayable"},{"type":"function","name":"afterInitialize","inputs":[{"name":"sender","type":"address","internalType":"address"},{"name":"key","type":"tuple","internalType":"struct PoolKey","components":[{"name":"currency0","type":"address","internalType":"Currency"},{"name":"currency1","type":"address","internalType":"Currency"},{"name":"fee","type":"uint24","internalType":"uint24"},{"name":"tickSpacing","type":"int24","internalType":"int24"},{"name":"hooks","type":"address","internalType":"contract IHooks"}]},{"name":"sqrtPriceX96","type":"uint160","internalType":"uint160"},{"name":"tick","type":"int24","internalType":"int24"}],"outputs":[{"name":"","type":"bytes4","internalType":"bytes4"}],"stateMutability":"nonpayable"},{"type":"function","name":"afterRemoveLiquidity","inputs":[{"name":"sender","type":"address","internalType":"address"},{"name":"key","type":"tuple","internalType":"struct PoolKey","components":[{"name":"currency0","type":"address","internalType":"Currency"},{"name":"currency1","type":"address","internalType":"Currency"},{"name":"fee","type":"uint24","internalType":"uint24"},{"name":"tickSpacing","type":"int24","internalType":"int24"},{"name":"hooks","type":"address","internalType":"contract IHooks"}]},{"name":"params","type":"tuple","internalType":"struct ModifyLiquidityParams","components":[{"name":"tickLower","type":"int24","internalType":"int24"},{"name":"tickUpper","type":"int24","internalType":"int24"},{"name":"liquidityDelta","type":"int256","internalType":"int256"},{"name":"salt","type":"bytes32","internalType":"bytes32"}]},{"name":"delta","type":"int256","internalType":"BalanceDelta"},{"name":"feesAccrued","type":"int256","internalType":"BalanceDelta"},{"name":"hookData","type":"bytes","internalType":"bytes"}],"outputs":[{"name":"","type":"bytes4","internalType":"bytes4"},{"name":"","type":"int256","internalType":"BalanceDelta"}],"stateMutability":"nonpayable"},{"type":"function","name":"afterSwap","inputs":[{"name":"sender","type":"address","internalType":"address"},{"name":"key","type":"tuple","internalType":"struct PoolKey","components":[{"name":"currency0","type":"address","internalType":"Currency"},{"name":"currency1","type":"address","internalType":"Currency"},{"name":"fee","type":"uint24","internalType":"uint24"},{"name":"tickSpacing","type":"int24","internalType":"int24"},{"name":"hooks","type":"address","internalType":"contract IHooks"}]},{"name":"params","type":"tuple","internalType":"struct SwapParams","components":[{"name":"zeroForOne","type":"bool","internalType":"bool"},{"name":"amountSpecified","type":"int256","internalType":"int256"},{"name":"sqrtPriceLimitX96","type":"uint160","internalType":"uint160"}]},{"name":"delta","type":"int256","internalType":"BalanceDelta"},{"name":"hookData","type":"bytes","internalType":"bytes"}],"outputs":[{"name":"","type":"bytes4","internalType":"bytes4"},{"name":"","type":"int128","internalType":"int128"}],"stateMutability":"nonpayable"},{"type":"function","name":"beforeAddLiquidity","inputs":[{"name":"sender","type":"address","internalType":"address"},{"name":"key","type":"tuple","internalType":"struct PoolKey","components":[{"name":"currency0","type":"address","internalType":"Currency"},{"name":"currency1","type":"address","internalType":"Currency"},{"name":"fee","type":"uint24","internalType":"uint24"},{"name":"tickSpacing","type":"int24","internalType":"int24"},{"name":"hooks","type":"address","internalType":"contract IHooks"}]},{"name":"params","type":"tuple","internalType":"struct ModifyLiquidityParams","components":[{"name":"tickLower","type":"int24","internalType":"int24"},{"name":"tickUpper","type":"int24","internalType":"int24"},{"name":"liquidityDelta","type":"int256","internalType":"int256"},{"name":"salt","type":"bytes32","internalType":"bytes32"}]},{"name":"hookData","type":"bytes","internalType":"bytes"}],"outputs":[{"name":"","type":"bytes4","internalType":"bytes4"}],"stateMutability":"nonpayable"},{"type":"function","name":"beforeDonate","inputs":[{"name":"sender","type":"address","internalType":"address"},{"name":"key","type":"tuple","internalType":"struct PoolKey","components":[{"name":"currency0","type":"address","internalType":"Currency"},{"name":"currency1","type":"address","internalType":"Currency"},{"name":"fee","type":"uint24","internalType":"uint24"},{"name":"tickSpacing","type":"int24","internalType":"int24"},{"name":"hooks","type":"address","internalType":"contract IHooks"}]},{"name":"amount0","type":"uint256","internalType":"uint256"},{"name":"amount1","type":"uint256","internalType":"uint256"},{"name":"hookData","type":"bytes","internalType":"bytes"}],"outputs":[{"name":"","type":"bytes4","internalType":"bytes4"}],"stateMutability":"nonpayable"},{"type":"function","name":"beforeInitialize","inputs":[{"name":"sender","type":"address","internalType":"address"},{"name":"key","type":"tuple","internalType":"struct PoolKey","components":[{"name":"currency0","type":"address","internalType":"Currency"},{"name":"currency1","type":"address","internalType":"Currency"},{"name":"fee","type":"uint24","internalType":"uint24"},{"name":"tickSpacing","type":"int24","internalType":"int24"},{"name":"hooks","type":"address","internalType":"contract IHooks"}]},{"name":"sqrtPriceX96","type":"uint160","internalType":"uint160"}],"outputs":[{"name":"","type":"bytes4","internalType":"bytes4"}],"stateMutability":"nonpayable"},{"type":"function","name":"beforeRemoveLiquidity","inputs":[{"name":"sender","type":"address","internalType":"address"},{"name":"key","type":"tuple","internalType":"struct PoolKey","components":[{"name":"currency0","type":"address","internalType":"Currency"},{"name":"currency1","type":"address","internalType":"Currency"},{"name":"fee","type":"uint24","internalType":"uint24"},{"name":"tickSpacing","type":"int24","internalType":"int24"},{"name":"hooks","type":"address","internalType":"contract IHooks"}]},{"name":"params","type":"tuple","internalType":"struct ModifyLiquidityParams","components":[{"name":"tickLower","type":"int24","internalType":"int24"},{"name":"tickUpper","type":"int24","internalType":"int24"},{"name":"liquidityDelta","type":"int256","internalType":"int256"},{"name":"salt","type":"bytes32","internalType":"bytes32"}]},{"name":"hookData","type":"bytes","internalType":"bytes"}],"outputs":[{"name":"","type":"bytes4","internalType":"bytes4"}],"stateMutability":"nonpayable"},{"type":"function","name":"beforeSwap","inputs":[{"name":"sender","type":"address","internalType":"address"},{"name":"key","type":"tuple","internalType":"struct PoolKey","components":[{"name":"currency0","type":"address","internalType":"Currency"},{"name":"currency1","type":"address","internalType":"Currency"},{"name":"fee","type":"uint24","internalType":"uint24"},{"name":"tickSpacing","type":"int24","internalType":"int24"},{"name":"hooks","type":"address","internalType":"contract IHooks"}]},{"name":"params","type":"tuple","internalType":"struct SwapParams","components":[{"name":"zeroForOne","type":"bool","internalType":"bool"},{"name":"amountSpecified","type":"int256","internalType":"int256"},{"name":"sqrtPriceLimitX96","type":"uint160","internalType":"uint160"}]},{"name":"hookData","type":"bytes","internalType":"bytes"}],"outputs":[{"name":"","type":"bytes4","internalType":"bytes4"},{"name":"","type":"int256","internalType":"BeforeSwapDelta"},{"name":"","type":"uint24","internalType":"uint24"}],"stateMutability":"nonpayable"},{"type":"function","name":"claim","inputs":[{"name":"key","type":"tuple","internalType":"struct PoolKey","components":[{"name":"currency0","type":"address","internalType":"Currency"},{"name":"currency1","type":"address","internalType":"Currency"},{"name":"fee","type":"uint24","internalType":"uint24"},{"name":"tickSpacing","type":"int24","internalType":"int24"},{"name":"hooks","type":"address","internalType":"contract IHooks"}]}],"outputs":[],"stateMutability":"nonpayable"},{"type":"function","name":"configs","inputs":[{"name":"","type":"bytes32","internalType":"PoolId"}],"outputs":[{"name":"splitBps","type":"uint16","internalType":"uint16"},{"name":"minInterval","type":"uint64","internalType":"uint64"}],"stateMutability":"view"},{"type":"function","name":"depositToken0","inputs":[{"name":"key","type":"tuple","internalType":"struct PoolKey","components":[{"name":"currency0","type":"address","internalType":"Currency"},{"name":"currency1","type":"address","internalType":"Currency"},{"name":"fee","type":"uint24","internalType":"uint24"},{"name":"tickSpacing","type":"int24","internalType":"int24"},{"name":"hooks","type":"address","internalType":"contract IHooks"}]},{"name":"amount","type":"uint256","internalType":"uint256"}],"outputs":[],"stateMutability":"nonpayable"},{"type":"function","name":"getHookPermissions","inputs":[],"outputs":[{"name":"p","type":"tuple","internalType":"struct Hooks.Permissions","components":[{"name":"beforeInitialize","type":"bool","internalType":"bool"},{"name":"afterInitialize","type":"bool","internalType":"bool"},{"name":"beforeAddLiquidity","type":"bool","internalType":"bool"},{"name":"afterAddLiquidity","type":"bool","internalType":"bool"},{"name":"beforeRemoveLiquidity","type":"bool","internalType":"bool"},{"name":"afterRemoveLiquidity","type":"bool","internalType":"bool"},{"name":"beforeSwap","type":"bool","internalType":"bool"},{"name":"afterSwap","type":"bool","internalType":"bool"},{"name":"beforeDonate","type":"bool","internalType":"bool"},{"name":"afterDonate","type":"bool","internalType":"bool"},{"name":"beforeSwapReturnDelta","type":"bool","internalType":"bool"},{"name":"afterSwapReturnDelta","type":"bool","internalType":"bool"},{"name":"afterAddLiquidityReturnDelta","type":"bool","internalType":"bool"},{"name":"afterRemoveLiquidityReturnDelta","type":"bool","internalType":"bool"}]}],"stateMutability":"pure"},{"type":"function","name":"lastRunAt","inputs":[{"name":"","type":"bytes32","internalType":"PoolId"}],"outputs":[{"name":"","type":"uint64","internalType":"uint64"}],"stateMutability":"view"},{"type":"function","name":"notifyFees","inputs":[{"name":"key","type":"tuple","internalType":"struct PoolKey","components":[{"name":"currency0","type":"address","internalType":"Currency"},{"name":"currency1","type":"address","internalType":"Currency"},{"name":"fee","type":"uint24","internalType":"uint24"},{"name":"tickSpacing","type":"int24","internalType":"int24"},{"name":"hooks","type":"address","internalType":"contract IHooks"}]},{"name":"collected0","type":"uint256","internalType":"uint256"},{"name":"collected1","type":"uint256","internalType":"uint256"}],"outputs":[],"stateMutability":"nonpayable"},{"type":"function","name":"owner","inputs":[],"outputs":[{"name":"","type":"address","internalType":"address"}],"stateMutability":"view"},{"type":"function","name":"pending","inputs":[{"name":"key","type":"tuple","internalType":"struct PoolKey","components":[{"name":"currency0","type":"address","internalType":"Currency"},{"name":"currency1","type":"address","internalType":"Currency"},{"name":"fee","type":"uint24","internalType":"uint24"},{"name":"tickSpacing","type":"int24","internalType":"int24"},{"name":"hooks","type":"address","internalType":"contract IHooks"}]},{"name":"user","type":"address","internalType":"address"}],"outputs":[{"name":"p0","type":"uint256","internalType":"uint256"},{"name":"p1","type":"uint256","internalType":"uint256"}],"stateMutability":"view"},{"type":"function","name":"poolManager","inputs":[],"outputs":[{"name":"","type":"address","internalType":"contract IPoolManager"}],"stateMutability":"view"},{"type":"function","name":"rescueToken","inputs":[{"name":"token","type":"address","internalType":"address"},{"name":"to","type":"address","internalType":"address"},{"name":"amount","type":"uint256","internalType":"uint256"}],"outputs":[],"stateMutability":"nonpayable"},{"type":"function","name":"setConfig","inputs":[{"name":"key","type":"tuple","internalType":"struct PoolKey","components":[{"name":"currency0","type":"address","internalType":"Currency"},{"name":"currency1","type":"address","internalType":"Currency"},{"name":"fee","type":"uint24","internalType":"uint24"},{"name":"tickSpacing","type":"int24","internalType":"int24"},{"name":"hooks","type":"address","internalType":"contract IHooks"}]},{"name":"splitBps","type":"uint16","internalType":"uint16"},{"name":"minInterval","type":"uint64","internalType":"uint64"}],"outputs":[],"stateMutability":"nonpayable"},{"type":"function","name":"totalShares","inputs":[{"name":"","type":"bytes32","internalType":"PoolId"}],"outputs":[{"name":"","type":"uint128","internalType":"uint128"}],"stateMutability":"view"},{"type":"function","name":"users","inputs":[{"name":"","type":"bytes32","internalType":"PoolId"},{"name":"","type":"address","internalType":"address"}],"outputs":[{"name":"shares","type":"uint128","internalType":"uint128"},{"name":"r0Debt","type":"uint128","internalType":"uint128"},{"name":"r1Debt","type":"uint128","internalType":"uint128"}],"stateMutability":"view"},{"type":"function","name":"withdrawToken0","inputs":[{"name":"key","type":"tuple","internalType":"struct PoolKey","components":[{"name":"currency0","type":"address","internalType":"Currency"},{"name":"currency1","type":"address","internalType":"Currency"},{"name":"fee","type":"uint24","internalType":"uint24"},{"name":"tickSpacing","type":"int24","internalType":"int24"},{"name":"hooks","type":"address","internalType":"contract IHooks"}]},{"name":"shares","type":"uint256","internalType":"uint256"}],"outputs":[],"stateMutability":"nonpayable"},{"type":"event","name":"Claimed","inputs":[{"name":"id","type":"bytes32","indexed":true,"internalType":"PoolId"},{"name":"user","type":"address","indexed":true,"internalType":"address"},{"name":"amt0","type":"uint256","indexed":false,"internalType":"uint256"},{"name":"amt1","type":"uint256","indexed":false,"internalType":"uint256"}],"anonymous":false},{"type":"event","name":"ConfigSet","inputs":[{"name":"id","type":"bytes32","indexed":true,"internalType":"PoolId"},{"name":"splitBps","type":"uint16","indexed":false,"internalType":"uint16"},{"name":"minInterval","type":"uint64","indexed":false,"internalType":"uint64"}],"anonymous":false},{"type":"event","name":"Deposited","inputs":[{"name":"id","type":"bytes32","indexed":true,"internalType":"PoolId"},{"name":"user","type":"address","indexed":true,"internalType":"address"},{"name":"amount","type":"uint256","indexed":false,"internalType":"uint256"},{"name":"shares","type":"uint256","indexed":false,"internalType":"uint256"}],"anonymous":false},{"type":"event","name":"FeeSplitTick","inputs":[{"name":"id","type":"bytes32","indexed":true,"internalType":"PoolId"},{"name":"nowTs","type":"uint64","indexed":false,"internalType":"uint64"}],"anonymous":false},{"type":"event","name":"FeesNotified","inputs":[{"name":"id","type":"bytes32","indexed":true,"internalType":"PoolId"},{"name":"toDepositors0","type":"uint256","indexed":false,"internalType":"uint256"},{"name":"toDepositors1","type":"uint256","indexed":false,"internalType":"uint256"}],"anonymous":false},{"type":"event","name":"Withdrawn","inputs":[{"name":"id","type":"bytes32","indexed":true,"internalType":"PoolId"},{"name":"user","type":"address","indexed":true,"internalType":"address"},{"name":"shares","type":"uint256","indexed":false,"internalType":"uint256"},{"name":"amt0","type":"uint256","indexed":false,"internalType":"uint256"}],"anonymous":false},{"type":"error","name":"HookNotImplemented","inputs":[]},{"type":"error","name":"NotPoolManager","inputs":[]}],"bytecode":{"object":"0x60a060405234801561000f575f80fd5b506040516143ae3803806143ae833981810160405281019061003191906105bb565b80808073ffffffffffffffffffffffffffffffffffffffff1660808173ffffffffffffffffffffffffffffffffffffffff168152505050610077306100bd60201b60201c565b50335f806101000a81548173ffffffffffffffffffffffffffffffffffffffff021916908373ffffffffffffffffffffffffffffffffffffffff160217905550506105e6565b6100da816100cf6100dd60201b60201c565b6100f960201b60201c565b50565b6100e56104cf565b60018160e001901515908115158152505090565b6101246120008373ffffffffffffffffffffffffffffffffffffffff1661048860201b90919060201c565b1515815f0151151514158061016b575061015f6110008373ffffffffffffffffffffffffffffffffffffffff1661048860201b90919060201c565b15158160200151151514155b806101a8575061019c6108008373ffffffffffffffffffffffffffffffffffffffff1661048860201b90919060201c565b15158160400151151514155b806101e557506101d96104008373ffffffffffffffffffffffffffffffffffffffff1661048860201b90919060201c565b15158160600151151514155b8061022257506102166102008373ffffffffffffffffffffffffffffffffffffffff1661048860201b90919060201c565b15158160800151151514155b8061025f57506102536101008373ffffffffffffffffffffffffffffffffffffffff1661048860201b90919060201c565b15158160a00151151514155b8061029b575061028f60808373ffffffffffffffffffffffffffffffffffffffff1661048860201b90919060201c565b15158160c00151151514155b806102d757506102cb60408373ffffffffffffffffffffffffffffffffffffffff1661048860201b90919060201c565b15158160e00151151514155b80610314575061030760208373ffffffffffffffffffffffffffffffffffffffff1661048860201b90919060201c565b1515816101000151151514155b80610351575061034460108373ffffffffffffffffffffffffffffffffffffffff1661048860201b90919060201c565b1515816101200151151514155b8061038e575061038160088373ffffffffffffffffffffffffffffffffffffffff1661048860201b90919060201c565b1515816101400151151514155b806103cb57506103be60048373ffffffffffffffffffffffffffffffffffffffff1661048860201b90919060201c565b1515816101600151151514155b8061040857506103fb60028373ffffffffffffffffffffffffffffffffffffffff1661048860201b90919060201c565b1515816101800151151514155b80610445575061043860018373ffffffffffffffffffffffffffffffffffffffff1661048860201b90919060201c565b1515816101a00151151514155b15610484576104838263e65af6a060e01b7bffffffffffffffffffffffffffffffffffffffffffffffffffffffff19166104ad60201b90919060201c565b5b5050565b5f8082841673ffffffffffffffffffffffffffffffffffffffff161415905092915050565b815f5273ffffffffffffffffffffffffffffffffffffffff811660045260245ffd5b604051806101c001604052805f151581526020015f151581526020015f151581526020015f151581526020015f151581526020015f151581526020015f151581526020015f151581526020015f151581526020015f151581526020015f151581526020015f151581526020015f151581526020015f151581525090565b5f80fd5b5f73ffffffffffffffffffffffffffffffffffffffff82169050919050565b5f61057982610550565b9050919050565b5f61058a8261056f565b9050919050565b61059a81610580565b81146105a4575f80fd5b50565b5f815190506105b581610591565b92915050565b5f602082840312156105d0576105cf61054c565b5b5f6105dd848285016105a7565b91505092915050565b608051613d6a6106445f395f81816105fa0152818161069801528181610a8101528181610eb601528181610f5b015281816111920152818161124d015281816112f0015281816115b7015281816115dc0152611dc10152613d6a5ff3fe608060405234801561000f575f80fd5b506004361061018c575f3560e01c8063b47b2fb1116100dc578063dc4c90d311610095578063e170a4621161006f578063e170a46214610531578063e1b4af691461054d578063e5711e8b1461057d578063f5da83cd146105995761018c565b8063dc4c90d3146104c7578063dc98354e146104e5578063de0c46ca146105155761018c565b8063b47b2fb1146103cb578063b6a8b0fa146103fc578063c2f390da1461042c578063c4e833ce14610448578063ce5c107314610466578063ce8f6078146104965761018c565b806361d6cd39116101495780637dd5ef60116101235780637dd5ef601461031b5780638da5cb5b1461034c5780639f063efc1461036a578063afa1572a1461039b5761018c565b806361d6cd391461029e5780636c2bbe7e146102ba5780636fe7e6eb146102eb5761018c565b806312e8d5941461019057806321d0ee70146101c0578063259982e5146101f057806332ad31f1146102205780633ba6685b14610250578063575e24b41461026c575b5f80fd5b6101aa60048036038101906101a591906127bc565b6105cb565b6040516101b79190612811565b60405180910390f35b6101da60048036038101906101d59190612925565b6105f7565b6040516101e791906129e5565b60405180910390f35b61020a60048036038101906102059190612925565b610695565b60405161021791906129e5565b60405180910390f35b61023a600480360381019061023591906127bc565b610733565b6040516102479190612a20565b60405180910390f35b61026a60048036038101906102659190612a6c565b610757565b005b61028660048036038101906102819190612ac8565b610a7c565b60405161029593929190612bad565b60405180910390f35b6102b860048036038101906102b39190612be2565b610b22565b005b6102d460048036038101906102cf9190612c5c565b610eb2565b6040516102e2929190612d19565b60405180910390f35b61030560048036038101906103009190612da0565b610f58565b60405161031291906129e5565b60405180910390f35b61033560048036038101906103309190612e05565b610ff4565b604051610343929190612e52565b60405180910390f35b61035461116b565b6040516103619190612e88565b60405180910390f35b610384600480360381019061037f9190612c5c565b61118e565b604051610392929190612d19565b60405180910390f35b6103b560048036038101906103b091906127bc565b611234565b6040516103c29190612ea1565b60405180910390f35b6103e560048036038101906103e09190612eba565b611249565b6040516103f3929190612f6e565b60405180910390f35b61041660048036038101906104119190612f95565b6112ed565b60405161042391906129e5565b60405180910390f35b6104466004803603810190610441919061308e565b61138d565b005b610450611544565b60405161045d9190613216565b60405180910390f35b610480600480360381019061047b91906127bc565b611560565b60405161048d9190612ea1565b60405180910390f35b6104b060048036038101906104ab91906127bc565b611575565b6040516104be92919061323f565b60405180910390f35b6104cf6115b5565b6040516104dc91906132b8565b60405180910390f35b6104ff60048036038101906104fa91906132d1565b6115d9565b60405161050c91906129e5565b60405180910390f35b61052f600480360381019061052a9190612a6c565b611673565b005b61054b60048036038101906105469190613321565b611995565b005b61056760048036038101906105629190612f95565b611dbe565b60405161057491906129e5565b60405180910390f35b6105976004803603810190610592919061334c565b611e5e565b005b6105b360048036038101906105ae919061339c565b611faa565b6040516105c2939291906133da565b60405180910390f35b6005602052805f5260405f205f915054906101000a90046fffffffffffffffffffffffffffffffff1681565b5f7f000000000000000000000000000000000000000000000000000000000000000073ffffffffffffffffffffffffffffffffffffffff163373ffffffffffffffffffffffffffffffffffffffff161461067d576040517fae18210a00000000000000000000000000000000000000000000000000000000815260040160405180910390fd5b61068a868686868661202c565b905095945050505050565b5f7f000000000000000000000000000000000000000000000000000000000000000073ffffffffffffffffffffffffffffffffffffffff163373ffffffffffffffffffffffffffffffffffffffff161461071b576040517fae18210a00000000000000000000000000000000000000000000000000000000815260040160405180910390fd5b610728868686868661205f565b905095945050505050565b6002602052805f5260405f205f915054906101000a900467ffffffffffffffff1681565b5f8111610799576040517f08c379a000000000000000000000000000000000000000000000000000000000815260040161079090613469565b60405180910390fd5b5f6107b3838036038101906107ae919061362b565b612092565b90505f60065f8381526020019081526020015f205f3373ffffffffffffffffffffffffffffffffffffffff1673ffffffffffffffffffffffffffffffffffffffff1681526020019081526020015f20905082815f015f9054906101000a90046fffffffffffffffffffffffffffffffff166fffffffffffffffffffffffffffffffff161015610877576040517f08c379a000000000000000000000000000000000000000000000000000000000815260040161086e906136a0565b60405180910390fd5b610881828261209e565b82815f015f8282829054906101000a90046fffffffffffffffffffffffffffffffff166108ae91906136eb565b92506101000a8154816fffffffffffffffffffffffffffffffff02191690836fffffffffffffffffffffffffffffffff1602179055508260055f8481526020019081526020015f205f8282829054906101000a90046fffffffffffffffffffffffffffffffff1661091f91906136eb565b92506101000a8154816fffffffffffffffffffffffffffffffff02191690836fffffffffffffffffffffffffffffffff1602179055505f845f016020810190610968919061372e565b90508073ffffffffffffffffffffffffffffffffffffffff1663a9059cbb33866040518363ffffffff1660e01b81526004016109a5929190613759565b6020604051808303815f875af11580156109c1573d5f803e3d5ffd5b505050506040513d601f19601f820116820180604052508101906109e591906137aa565b610a24576040517f08c379a0000000000000000000000000000000000000000000000000000000008152600401610a1b9061381f565b60405180910390fd5b3373ffffffffffffffffffffffffffffffffffffffff16837fad382ae4a0a8c252d70b902c9cc346f3e881ad505df3f728122a01006bb88f098687604051610a6d929190612e52565b60405180910390a35050505050565b5f805f7f000000000000000000000000000000000000000000000000000000000000000073ffffffffffffffffffffffffffffffffffffffff163373ffffffffffffffffffffffffffffffffffffffff1614610b04576040517fae18210a00000000000000000000000000000000000000000000000000000000815260040160405180910390fd5b610b1188888888886122ef565b925092509250955095509592505050565b5f8054906101000a900473ffffffffffffffffffffffffffffffffffffffff1673ffffffffffffffffffffffffffffffffffffffff163373ffffffffffffffffffffffffffffffffffffffff1614610baf576040517f08c379a0000000000000000000000000000000000000000000000000000000008152600401610ba690613887565b60405180910390fd5b5f610bc984803603810190610bc4919061362b565b612092565b90505f60015f8381526020019081526020015f206040518060400160405290815f82015f9054906101000a900461ffff1661ffff1661ffff1681526020015f820160029054906101000a900467ffffffffffffffff1667ffffffffffffffff1667ffffffffffffffff16815250509050612710815f015161ffff161115610c85576040517f08c379a0000000000000000000000000000000000000000000000000000000008152600401610c7c906138ef565b60405180910390fd5b5f612710825f015161ffff1686610c9c919061390d565b610ca6919061397b565b90505f612710835f015161ffff1686610cbf919061390d565b610cc9919061397b565b90505f82118015610d1757505f60055f8681526020019081526020015f205f9054906101000a90046fffffffffffffffffffffffffffffffff166fffffffffffffffffffffffffffffffff16115b15610d9d5760055f8581526020019081526020015f205f9054906101000a90046fffffffffffffffffffffffffffffffff166fffffffffffffffffffffffffffffffff1664e8d4a5100083610d6c919061390d565b610d76919061397b565b60035f8681526020019081526020015f205f828254610d9591906139ab565b925050819055505b5f81118015610de957505f60055f8681526020019081526020015f205f9054906101000a90046fffffffffffffffffffffffffffffffff166fffffffffffffffffffffffffffffffff16115b15610e6f5760055f8581526020019081526020015f205f9054906101000a90046fffffffffffffffffffffffffffffffff166fffffffffffffffffffffffffffffffff1664e8d4a5100082610e3e919061390d565b610e48919061397b565b60045f8681526020019081526020015f205f828254610e6791906139ab565b925050819055505b837fefc1c9427e04dac06482a09f1de1c3b64079f21716c03831a1a26240d0a710018383604051610ea1929190612e52565b60405180910390a250505050505050565b5f807f000000000000000000000000000000000000000000000000000000000000000073ffffffffffffffffffffffffffffffffffffffff163373ffffffffffffffffffffffffffffffffffffffff1614610f39576040517fae18210a00000000000000000000000000000000000000000000000000000000815260040160405180910390fd5b610f4889898989898989612324565b9150915097509795505050505050565b5f7f000000000000000000000000000000000000000000000000000000000000000073ffffffffffffffffffffffffffffffffffffffff163373ffffffffffffffffffffffffffffffffffffffff1614610fde576040517fae18210a00000000000000000000000000000000000000000000000000000000815260040160405180910390fd5b610fea85858585612358565b9050949350505050565b5f806111606110128580360381019061100d919061362b565b612092565b60065f61102e88803603810190611029919061362b565b612092565b81526020019081526020015f205f8673ffffffffffffffffffffffffffffffffffffffff1673ffffffffffffffffffffffffffffffffffffffff1681526020019081526020015f206040518060600160405290815f82015f9054906101000a90046fffffffffffffffffffffffffffffffff166fffffffffffffffffffffffffffffffff166fffffffffffffffffffffffffffffffff1681526020015f820160109054906101000a90046fffffffffffffffffffffffffffffffff166fffffffffffffffffffffffffffffffff166fffffffffffffffffffffffffffffffff168152602001600182015f9054906101000a90046fffffffffffffffffffffffffffffffff166fffffffffffffffffffffffffffffffff166fffffffffffffffffffffffffffffffff168152505061238b565b915091509250929050565b5f8054906101000a900473ffffffffffffffffffffffffffffffffffffffff1681565b5f807f000000000000000000000000000000000000000000000000000000000000000073ffffffffffffffffffffffffffffffffffffffff163373ffffffffffffffffffffffffffffffffffffffff1614611215576040517fae18210a00000000000000000000000000000000000000000000000000000000815260040160405180910390fd5b61122489898989898989612486565b9150915097509795505050505050565b6003602052805f5260405f205f915090505481565b5f807f000000000000000000000000000000000000000000000000000000000000000073ffffffffffffffffffffffffffffffffffffffff163373ffffffffffffffffffffffffffffffffffffffff16146112d0576040517fae18210a00000000000000000000000000000000000000000000000000000000815260040160405180910390fd5b6112de8888888888886124ba565b91509150965096945050505050565b5f7f000000000000000000000000000000000000000000000000000000000000000073ffffffffffffffffffffffffffffffffffffffff163373ffffffffffffffffffffffffffffffffffffffff1614611373576040517fae18210a00000000000000000000000000000000000000000000000000000000815260040160405180910390fd5b611381878787878787612662565b90509695505050505050565b5f8054906101000a900473ffffffffffffffffffffffffffffffffffffffff1673ffffffffffffffffffffffffffffffffffffffff163373ffffffffffffffffffffffffffffffffffffffff161461141a576040517f08c379a000000000000000000000000000000000000000000000000000000000815260040161141190613887565b60405180910390fd5b6127108261ffff161115611463576040517f08c379a000000000000000000000000000000000000000000000000000000000815260040161145a90613a28565b60405180910390fd5b5f61147d84803603810190611478919061362b565b612092565b905060405180604001604052808461ffff1681526020018367ffffffffffffffff1681525060015f8381526020019081526020015f205f820151815f015f6101000a81548161ffff021916908361ffff1602179055506020820151815f0160026101000a81548167ffffffffffffffff021916908367ffffffffffffffff160217905550905050807ffc156048b5d106f968e1972f7269fa4a7e7163b7e9f525bd87f408fc89171d26848460405161153692919061323f565b60405180910390a250505050565b61154c6126fb565b60018160e001901515908115158152505090565b6004602052805f5260405f205f915090505481565b6001602052805f5260405f205f91509050805f015f9054906101000a900461ffff1690805f0160029054906101000a900467ffffffffffffffff16905082565b7f000000000000000000000000000000000000000000000000000000000000000081565b5f7f000000000000000000000000000000000000000000000000000000000000000073ffffffffffffffffffffffffffffffffffffffff163373ffffffffffffffffffffffffffffffffffffffff161461165f576040517fae18210a00000000000000000000000000000000000000000000000000000000815260040160405180910390fd5b61166a848484612695565b90509392505050565b5f81116116b5576040517f08c379a00000000000000000000000000000000000000000000000000000000081526004016116ac90613469565b60405180910390fd5b5f6116cf838036038101906116ca919061362b565b612092565b90505f835f0160208101906116e4919061372e565b90505f73ffffffffffffffffffffffffffffffffffffffff168173ffffffffffffffffffffffffffffffffffffffff1603611754576040517f08c379a000000000000000000000000000000000000000000000000000000000815260040161174b90613a90565b60405180910390fd5b8073ffffffffffffffffffffffffffffffffffffffff166323b872dd3330866040518463ffffffff1660e01b815260040161179193929190613aae565b6020604051808303815f875af11580156117ad573d5f803e3d5ffd5b505050506040513d601f19601f820116820180604052508101906117d191906137aa565b611810576040517f08c379a000000000000000000000000000000000000000000000000000000000815260040161180790613b2d565b60405180910390fd5b5f60065f8481526020019081526020015f205f3373ffffffffffffffffffffffffffffffffffffffff1673ffffffffffffffffffffffffffffffffffffffff1681526020019081526020015f209050611869838261209e565b83815f015f8282829054906101000a90046fffffffffffffffffffffffffffffffff166118969190613b4b565b92506101000a8154816fffffffffffffffffffffffffffffffff02191690836fffffffffffffffffffffffffffffffff1602179055508360055f8581526020019081526020015f205f8282829054906101000a90046fffffffffffffffffffffffffffffffff166119079190613b4b565b92506101000a8154816fffffffffffffffffffffffffffffffff02191690836fffffffffffffffffffffffffffffffff1602179055503373ffffffffffffffffffffffffffffffffffffffff16837f2dcdaad87b561ba5a69835009b4c53ef9d3c41ca6cc9574049187659d6c6a7158687604051611986929190612e52565b60405180910390a35050505050565b5f6119af828036038101906119aa919061362b565b612092565b90505f60065f8381526020019081526020015f205f3373ffffffffffffffffffffffffffffffffffffffff1673ffffffffffffffffffffffffffffffffffffffff1681526020019081526020015f2090505f80611af184846040518060600160405290815f82015f9054906101000a90046fffffffffffffffffffffffffffffffff166fffffffffffffffffffffffffffffffff166fffffffffffffffffffffffffffffffff1681526020015f820160109054906101000a90046fffffffffffffffffffffffffffffffff166fffffffffffffffffffffffffffffffff166fffffffffffffffffffffffffffffffff168152602001600182015f9054906101000a90046fffffffffffffffffffffffffffffffff166fffffffffffffffffffffffffffffffff166fffffffffffffffffffffffffffffffff168152505061238b565b915091505f821115611c2d5781835f0160108282829054906101000a90046fffffffffffffffffffffffffffffffff16611b2b9190613b4b565b92506101000a8154816fffffffffffffffffffffffffffffffff02191690836fffffffffffffffffffffffffffffffff160217905550845f016020810190611b73919061372e565b73ffffffffffffffffffffffffffffffffffffffff1663a9059cbb33846040518363ffffffff1660e01b8152600401611bad929190613759565b6020604051808303815f875af1158015611bc9573d5f803e3d5ffd5b505050506040513d601f19601f82011682018060405250810190611bed91906137aa565b611c2c576040517f08c379a0000000000000000000000000000000000000000000000000000000008152600401611c2390613bd8565b60405180910390fd5b5b5f811115611d665780836001015f8282829054906101000a90046fffffffffffffffffffffffffffffffff16611c639190613b4b565b92506101000a8154816fffffffffffffffffffffffffffffffff02191690836fffffffffffffffffffffffffffffffff160217905550846020016020810190611cac919061372e565b73ffffffffffffffffffffffffffffffffffffffff1663a9059cbb33836040518363ffffffff1660e01b8152600401611ce6929190613759565b6020604051808303815f875af1158015611d02573d5f803e3d5ffd5b505050506040513d601f19601f82011682018060405250810190611d2691906137aa565b611d65576040517f08c379a0000000000000000000000000000000000000000000000000000000008152600401611d5c90613c40565b60405180910390fd5b5b3373ffffffffffffffffffffffffffffffffffffffff16847f2500ada8ba581126c805692756f230258621bbe372c90d928a7284fab4a9c1ea8484604051611daf929190612e52565b60405180910390a35050505050565b5f7f000000000000000000000000000000000000000000000000000000000000000073ffffffffffffffffffffffffffffffffffffffff163373ffffffffffffffffffffffffffffffffffffffff1614611e44576040517fae18210a00000000000000000000000000000000000000000000000000000000815260040160405180910390fd5b611e528787878787876126c8565b90509695505050505050565b5f8054906101000a900473ffffffffffffffffffffffffffffffffffffffff1673ffffffffffffffffffffffffffffffffffffffff163373ffffffffffffffffffffffffffffffffffffffff1614611eeb576040517f08c379a0000000000000000000000000000000000000000000000000000000008152600401611ee290613887565b60405180910390fd5b8273ffffffffffffffffffffffffffffffffffffffff1663a9059cbb83836040518363ffffffff1660e01b8152600401611f26929190613759565b6020604051808303815f875af1158015611f42573d5f803e3d5ffd5b505050506040513d601f19601f82011682018060405250810190611f6691906137aa565b611fa5576040517f08c379a0000000000000000000000000000000000000000000000000000000008152600401611f9c90613ca8565b60405180910390fd5b505050565b6006602052815f5260405f20602052805f5260405f205f9150915050805f015f9054906101000a90046fffffffffffffffffffffffffffffffff1690805f0160109054906101000a90046fffffffffffffffffffffffffffffffff1690806001015f9054906101000a90046fffffffffffffffffffffffffffffffff16905083565b5f6040517f0a85dc2900000000000000000000000000000000000000000000000000000000815260040160405180910390fd5b5f6040517f0a85dc2900000000000000000000000000000000000000000000000000000000815260040160405180910390fd5b5f60a082209050919050565b5f815f015f9054906101000a90046fffffffffffffffffffffffffffffffff166fffffffffffffffffffffffffffffffff1603156122eb575f815f0160109054906101000a90046fffffffffffffffffffffffffffffffff166fffffffffffffffffffffffffffffffff1664e8d4a5100060035f8681526020019081526020015f2054845f015f9054906101000a90046fffffffffffffffffffffffffffffffff166fffffffffffffffffffffffffffffffff1661215c919061390d565b612166919061397b565b6121709190613cc6565b90505f826001015f9054906101000a90046fffffffffffffffffffffffffffffffff166fffffffffffffffffffffffffffffffff1664e8d4a5100060045f8781526020019081526020015f2054855f015f9054906101000a90046fffffffffffffffffffffffffffffffff166fffffffffffffffffffffffffffffffff166121f8919061390d565b612202919061397b565b61220c9190613cc6565b90505f82111561227b5781835f0160108282829054906101000a90046fffffffffffffffffffffffffffffffff166122449190613b4b565b92506101000a8154816fffffffffffffffffffffffffffffffff02191690836fffffffffffffffffffffffffffffffff1602179055505b5f8111156122e85780836001015f8282829054906101000a90046fffffffffffffffffffffffffffffffff166122b19190613b4b565b92506101000a8154816fffffffffffffffffffffffffffffffff02191690836fffffffffffffffffffffffffffffffff1602179055505b50505b5050565b5f805f6040517f0a85dc2900000000000000000000000000000000000000000000000000000000815260040160405180910390fd5b5f806040517f0a85dc2900000000000000000000000000000000000000000000000000000000815260040160405180910390fd5b5f6040517f0a85dc2900000000000000000000000000000000000000000000000000000000815260040160405180910390fd5b5f805f835f01516fffffffffffffffffffffffffffffffff16036123b4575f809150915061247f565b82602001516fffffffffffffffffffffffffffffffff1664e8d4a5100060035f8781526020019081526020015f2054855f01516fffffffffffffffffffffffffffffffff16612403919061390d565b61240d919061397b565b6124179190613cc6565b915082604001516fffffffffffffffffffffffffffffffff1664e8d4a5100060045f8781526020019081526020015f2054855f01516fffffffffffffffffffffffffffffffff16612468919061390d565b612472919061397b565b61247c9190613cc6565b90505b9250929050565b5f806040517f0a85dc2900000000000000000000000000000000000000000000000000000000815260040160405180910390fd5b5f805f6124d6888036038101906124d1919061362b565b612092565b90505f60015f8381526020019081526020015f206040518060400160405290815f82015f9054906101000a900461ffff1661ffff1661ffff1681526020015f820160029054906101000a900467ffffffffffffffff1667ffffffffffffffff1667ffffffffffffffff168152505090505f816020015167ffffffffffffffff160361256f5763b47b2fb160e01b5f935093505050612657565b5f429050816020015160025f8581526020019081526020015f205f9054906101000a900467ffffffffffffffff166125a79190613cf9565b67ffffffffffffffff168167ffffffffffffffff1610156125d75763b47b2fb160e01b5f94509450505050612657565b8060025f8581526020019081526020015f205f6101000a81548167ffffffffffffffff021916908367ffffffffffffffff160217905550827f5f5b219d59ccc6242569606e99310e63f218fe45e04a81553bf7b501df2b549e8260405161263e9190612a20565b60405180910390a263b47b2fb160e01b5f945094505050505b965096945050505050565b5f6040517f0a85dc2900000000000000000000000000000000000000000000000000000000815260040160405180910390fd5b5f6040517f0a85dc2900000000000000000000000000000000000000000000000000000000815260040160405180910390fd5b5f6040517f0a85dc2900000000000000000000000000000000000000000000000000000000815260040160405180910390fd5b604051806101c001604052805f151581526020015f151581526020015f151581526020015f151581526020015f151581526020015f151581526020015f151581526020015f151581526020015f151581526020015f151581526020015f151581526020015f151581526020015f151581526020015f151581525090565b5f604051905090565b5f80fd5b5f80fd5b5f819050919050565b61279b81612789565b81146127a5575f80fd5b50565b5f813590506127b681612792565b92915050565b5f602082840312156127d1576127d0612781565b5b5f6127de848285016127a8565b91505092915050565b5f6fffffffffffffffffffffffffffffffff82169050919050565b61280b816127e7565b82525050565b5f6020820190506128245f830184612802565b92915050565b5f73ffffffffffffffffffffffffffffffffffffffff82169050919050565b5f6128538261282a565b9050919050565b61286381612849565b811461286d575f80fd5b50565b5f8135905061287e8161285a565b92915050565b5f80fd5b5f60a0828403121561289d5761289c612884565b5b81905092915050565b5f608082840312156128bb576128ba612884565b5b81905092915050565b5f80fd5b5f80fd5b5f80fd5b5f8083601f8401126128e5576128e46128c4565b5b8235905067ffffffffffffffff811115612902576129016128c8565b5b60208301915083600182028301111561291e5761291d6128cc565b5b9250929050565b5f805f805f610160868803121561293f5761293e612781565b5b5f61294c88828901612870565b955050602061295d88828901612888565b94505060c061296e888289016128a6565b93505061014086013567ffffffffffffffff8111156129905761298f612785565b5b61299c888289016128d0565b92509250509295509295909350565b5f7fffffffff0000000000000000000000000000000000000000000000000000000082169050919050565b6129df816129ab565b82525050565b5f6020820190506129f85f8301846129d6565b92915050565b5f67ffffffffffffffff82169050919050565b612a1a816129fe565b82525050565b5f602082019050612a335f830184612a11565b92915050565b5f819050919050565b612a4b81612a39565b8114612a55575f80fd5b50565b5f81359050612a6681612a42565b92915050565b5f8060c08385031215612a8257612a81612781565b5b5f612a8f85828601612888565b92505060a0612aa085828601612a58565b9150509250929050565b5f60608284031215612abf57612abe612884565b5b81905092915050565b5f805f805f6101408688031215612ae257612ae1612781565b5b5f612aef88828901612870565b9550506020612b0088828901612888565b94505060c0612b1188828901612aaa565b93505061012086013567ffffffffffffffff811115612b3357612b32612785565b5b612b3f888289016128d0565b92509250509295509295909350565b5f819050919050565b5f819050919050565b5f612b7a612b75612b7084612b4e565b612b57565b612b4e565b9050919050565b612b8a81612b60565b82525050565b5f62ffffff82169050919050565b612ba781612b90565b82525050565b5f606082019050612bc05f8301866129d6565b612bcd6020830185612b81565b612bda6040830184612b9e565b949350505050565b5f805f60e08486031215612bf957612bf8612781565b5b5f612c0686828701612888565b93505060a0612c1786828701612a58565b92505060c0612c2886828701612a58565b9150509250925092565b612c3b81612b4e565b8114612c45575f80fd5b50565b5f81359050612c5681612c32565b92915050565b5f805f805f805f6101a0888a031215612c7857612c77612781565b5b5f612c858a828b01612870565b9750506020612c968a828b01612888565b96505060c0612ca78a828b016128a6565b955050610140612cb98a828b01612c48565b945050610160612ccb8a828b01612c48565b93505061018088013567ffffffffffffffff811115612ced57612cec612785565b5b612cf98a828b016128d0565b925092505092959891949750929550565b612d1381612b60565b82525050565b5f604082019050612d2c5f8301856129d6565b612d396020830184612d0a565b9392505050565b612d498161282a565b8114612d53575f80fd5b50565b5f81359050612d6481612d40565b92915050565b5f8160020b9050919050565b612d7f81612d6a565b8114612d89575f80fd5b50565b5f81359050612d9a81612d76565b92915050565b5f805f806101008587031215612db957612db8612781565b5b5f612dc687828801612870565b9450506020612dd787828801612888565b93505060c0612de887828801612d56565b92505060e0612df987828801612d8c565b91505092959194509250565b5f8060c08385031215612e1b57612e1a612781565b5b5f612e2885828601612888565b92505060a0612e3985828601612870565b9150509250929050565b612e4c81612a39565b82525050565b5f604082019050612e655f830185612e43565b612e726020830184612e43565b9392505050565b612e8281612849565b82525050565b5f602082019050612e9b5f830184612e79565b92915050565b5f602082019050612eb45f830184612e43565b92915050565b5f805f805f806101608789031215612ed557612ed4612781565b5b5f612ee289828a01612870565b9650506020612ef389828a01612888565b95505060c0612f0489828a01612aaa565b945050610120612f1689828a01612c48565b93505061014087013567ffffffffffffffff811115612f3857612f37612785565b5b612f4489828a016128d0565b92509250509295509295509295565b5f81600f0b9050919050565b612f6881612f53565b82525050565b5f604082019050612f815f8301856129d6565b612f8e6020830184612f5f565b9392505050565b5f805f805f806101208789031215612fb057612faf612781565b5b5f612fbd89828a01612870565b9650506020612fce89828a01612888565b95505060c0612fdf89828a01612a58565b94505060e0612ff089828a01612a58565b93505061010087013567ffffffffffffffff81111561301257613011612785565b5b61301e89828a016128d0565b92509250509295509295509295565b5f61ffff82169050919050565b6130438161302d565b811461304d575f80fd5b50565b5f8135905061305e8161303a565b92915050565b61306d816129fe565b8114613077575f80fd5b50565b5f8135905061308881613064565b92915050565b5f805f60e084860312156130a5576130a4612781565b5b5f6130b286828701612888565b93505060a06130c386828701613050565b92505060c06130d48682870161307a565b9150509250925092565b5f8115159050919050565b6130f2816130de565b82525050565b6101c082015f82015161310d5f8501826130e9565b50602082015161312060208501826130e9565b50604082015161313360408501826130e9565b50606082015161314660608501826130e9565b50608082015161315960808501826130e9565b5060a082015161316c60a08501826130e9565b5060c082015161317f60c08501826130e9565b5060e082015161319260e08501826130e9565b506101008201516131a76101008501826130e9565b506101208201516131bc6101208501826130e9565b506101408201516131d16101408501826130e9565b506101608201516131e66101608501826130e9565b506101808201516131fb6101808501826130e9565b506101a08201516132106101a08501826130e9565b50505050565b5f6101c08201905061322a5f8301846130f8565b92915050565b6132398161302d565b82525050565b5f6040820190506132525f830185613230565b61325f6020830184612a11565b9392505050565b5f61328061327b6132768461282a565b612b57565b61282a565b9050919050565b5f61329182613266565b9050919050565b5f6132a282613287565b9050919050565b6132b281613298565b82525050565b5f6020820190506132cb5f8301846132a9565b92915050565b5f805f60e084860312156132e8576132e7612781565b5b5f6132f586828701612870565b935050602061330686828701612888565b92505060c061331786828701612d56565b9150509250925092565b5f60a0828403121561333657613335612781565b5b5f61334384828501612888565b91505092915050565b5f805f6060848603121561336357613362612781565b5b5f61337086828701612870565b935050602061338186828701612870565b925050604061339286828701612a58565b9150509250925092565b5f80604083850312156133b2576133b1612781565b5b5f6133bf858286016127a8565b92505060206133d085828601612870565b9150509250929050565b5f6060820190506133ed5f830186612802565b6133fa6020830185612802565b6134076040830184612802565b949350505050565b5f82825260208201905092915050565b7f7a65726f000000000000000000000000000000000000000000000000000000005f82015250565b5f61345360048361340f565b915061345e8261341f565b602082019050919050565b5f6020820190508181035f83015261348081613447565b9050919050565b5f80fd5b5f601f19601f8301169050919050565b7f4e487b71000000000000000000000000000000000000000000000000000000005f52604160045260245ffd5b6134d18261348b565b810181811067ffffffffffffffff821117156134f0576134ef61349b565b5b80604052505050565b5f613502612778565b905061350e82826134c8565b919050565b61351c81612849565b8114613526575f80fd5b50565b5f8135905061353781613513565b92915050565b61354681612b90565b8114613550575f80fd5b50565b5f813590506135618161353d565b92915050565b5f61357182612849565b9050919050565b61358181613567565b811461358b575f80fd5b50565b5f8135905061359c81613578565b92915050565b5f60a082840312156135b7576135b6613487565b5b6135c160a06134f9565b90505f6135d084828501613529565b5f8301525060206135e384828501613529565b60208301525060406135f784828501613553565b604083015250606061360b84828501612d8c565b606083015250608061361f8482850161358e565b60808301525092915050565b5f60a082840312156136405761363f612781565b5b5f61364d848285016135a2565b91505092915050565b7f696e73756666696369656e7400000000000000000000000000000000000000005f82015250565b5f61368a600c8361340f565b915061369582613656565b602082019050919050565b5f6020820190508181035f8301526136b78161367e565b9050919050565b7f4e487b71000000000000000000000000000000000000000000000000000000005f52601160045260245ffd5b5f6136f5826127e7565b9150613700836127e7565b925082820390506fffffffffffffffffffffffffffffffff811115613728576137276136be565b5b92915050565b5f6020828403121561374357613742612781565b5b5f61375084828501613529565b91505092915050565b5f60408201905061376c5f830185612e79565b6137796020830184612e43565b9392505050565b613789816130de565b8114613793575f80fd5b50565b5f815190506137a481613780565b92915050565b5f602082840312156137bf576137be612781565b5b5f6137cc84828501613796565b91505092915050565b7f7472616e73666572206661696c000000000000000000000000000000000000005f82015250565b5f613809600d8361340f565b9150613814826137d5565b602082019050919050565b5f6020820190508181035f830152613836816137fd565b9050919050565b7f6e6f74206f776e657200000000000000000000000000000000000000000000005f82015250565b5f61387160098361340f565b915061387c8261383d565b602082019050919050565b5f6020820190508181035f83015261389e81613865565b9050919050565b7f63666700000000000000000000000000000000000000000000000000000000005f82015250565b5f6138d960038361340f565b91506138e4826138a5565b602082019050919050565b5f6020820190508181035f830152613906816138cd565b9050919050565b5f61391782612a39565b915061392283612a39565b925082820261393081612a39565b91508282048414831517613947576139466136be565b5b5092915050565b7f4e487b71000000000000000000000000000000000000000000000000000000005f52601260045260245ffd5b5f61398582612a39565b915061399083612a39565b9250826139a05761399f61394e565b5b828204905092915050565b5f6139b582612a39565b91506139c083612a39565b92508282019050808211156139d8576139d76136be565b5b92915050565b7f73706c69743e31303025000000000000000000000000000000000000000000005f82015250565b5f613a12600a8361340f565b9150613a1d826139de565b602082019050919050565b5f6020820190508181035f830152613a3f81613a06565b9050919050565b7f6e6174697665206e6f7420737570706f727465640000000000000000000000005f82015250565b5f613a7a60148361340f565b9150613a8582613a46565b602082019050919050565b5f6020820190508181035f830152613aa781613a6e565b9050919050565b5f606082019050613ac15f830186612e79565b613ace6020830185612e79565b613adb6040830184612e43565b949350505050565b7f7472616e7366657246726f6d206661696c0000000000000000000000000000005f82015250565b5f613b1760118361340f565b9150613b2282613ae3565b602082019050919050565b5f6020820190508181035f830152613b4481613b0b565b9050919050565b5f613b55826127e7565b9150613b60836127e7565b925082820190506fffffffffffffffffffffffffffffffff811115613b8857613b876136be565b5b92915050565b7f74302078666572000000000000000000000000000000000000000000000000005f82015250565b5f613bc260078361340f565b9150613bcd82613b8e565b602082019050919050565b5f6020820190508181035f830152613bef81613bb6565b9050919050565b7f74312078666572000000000000000000000000000000000000000000000000005f82015250565b5f613c2a60078361340f565b9150613c3582613bf6565b602082019050919050565b5f6020820190508181035f830152613c5781613c1e565b9050919050565b7f726573637565206661696c0000000000000000000000000000000000000000005f82015250565b5f613c92600b8361340f565b9150613c9d82613c5e565b602082019050919050565b5f6020820190508181035f830152613cbf81613c86565b9050919050565b5f613cd082612a39565b9150613cdb83612a39565b9250828203905081811115613cf357613cf26136be565b5b92915050565b5f613d03826129fe565b9150613d0e836129fe565b9250828201905067ffffffffffffffff811115613d2e57613d2d6136be565b5b9291505056fea2646970667358221220b90996e273287dc7e86c4bd03b4490427ca6ec230ab768400ae296a849664a2564736f6c634300081a0033","linkReferences":{}},"methodIdentifiers":{"acc0PerShare(bytes32)":"afa1572a","acc1PerShare(bytes32)":"ce5c1073","afterAddLiquidity(address,(address,address,uint24,int24,address),(int24,int24,int256,bytes32),int256,int256,bytes)":"9f063efc","afterDonate(address,(address,address,uint24,int24,address),uint256,uint256,bytes)":"e1b4af69","afterInitialize(address,(address,address,uint24,int24,address),uint160,int24)":"6fe7e6eb","afterRemoveLiquidity(address,(address,address,uint24,int24,address),(int24,int24,int256,bytes32),int256,int256,bytes)":"6c2bbe7e","afterSwap(address,(address,address,uint24,int24,address),(bool,int256,uint160),int256,bytes)":"b47b2fb1","beforeAddLiquidity(address,(address,address,uint24,int24,address),(int24,int24,int256,bytes32),bytes)":"259982e5","beforeDonate(address,(address,address,uint24,int24,address),uint256,uint256,bytes)":"b6a8b0fa","beforeInitialize(address,(address,address,uint24,int24,address),uint160)":"dc98354e","beforeRemoveLiquidity(address,(address,address,uint24,int24,address),(int24,int24,int256,bytes32),bytes)":"21d0ee70","beforeSwap(address,(address,address,uint24,int24,address),(bool,int256,uint160),bytes)":"575e24b4","claim((address,address,uint24,int24,address))":"e170a462","configs(bytes32)":"ce8f6078","depositToken0((address,address,uint24,int24,address),uint256)":"de0c46ca","getHookPermissions()":"c4e833ce","lastRunAt(bytes32)":"32ad31f1","notifyFees((address,address,uint24,int24,address),uint256,uint256)":"61d6cd39","owner()":"8da5cb5b","pending((address,address,uint24,int24,address),address)":"7dd5ef60","poolManager()":"dc4c90d3","rescueToken(address,address,uint256)":"e5711e8b","setConfig((address,address,uint24,int24,address),uint16,uint64)":"c2f390da","totalShares(bytes32)":"12e8d594","users(bytes32,address)":"f5da83cd","withdrawToken0((address,address,uint24,int24,address),uint256)":"3ba6685b"},"id":103}