{"abi":[{"type":"constructor","inputs":[{"name":"_poolManager","type":"address","internalType":"contract IPoolManager"}],"stateMutability":"nonpayable"},{"type":"function","name":"afterAddLiquidity","inputs":[{"name":"sender","type":"address","internalType":"address"},{"name":"key","type":"tuple","internalType":"struct PoolKey","components":[{"name":"currency0","type":"address","internalType":"Currency"},{"name":"currency1","type":"address","internalType":"Currency"},{"name":"fee","type":"uint24","internalType":"uint24"},{"name":"tickSpacing","type":"int24","internalType":"int24"},{"name":"hooks","type":"address","internalType":"contract IHooks"}]},{"name":"params","type":"tuple","internalType":"struct ModifyLiquidityParams","components":[{"name":"tickLower","type":"int24","internalType":"int24"},{"name":"tickUpper","type":"int24","internalType":"int24"},{"name":"liquidityDelta","type":"int256","internalType":"int256"},{"name":"salt","type":"bytes32","internalType":"bytes32"}]},{"name":"delta","type":"int256","internalType":"BalanceDelta"},{"name":"feesAccrued","type":"int256","internalType":"BalanceDelta"},{"name":"hookData","type":"bytes","internalType":"bytes"}],"outputs":[{"name":"","type":"bytes4","internalType":"bytes4"},{"name":"","type":"int256","internalType":"BalanceDelta"}],"stateMutability":"nonpayable"},{"type":"function","name":"afterDonate","inputs":[{"name":"sender","type":"address","internalType":"address"},{"name":"key","type":"tuple","internalType":"struct PoolKey","components":[{"name":"currency0","type":"address","internalType":"Currency"},{"name":"currency1","type":"address","internalType":"Currency"},{"name":"fee","type":"uint24","internalType":"uint24"},{"name":"tickSpacing","type":"int24","internalType":"int24"},{"name":"hooks","type":"address","internalType":"contract IHooks"}]},{"name":"amount0","type":"uint256","internalType":"uint256"},{"name":"amount1","type":"uint256","internalType":"uint256"},{"name":"hookData","type":"bytes","internalType":"bytes"}],"outputs":[{"name":"","type":"bytes4","internalType":"bytes4"}],"stateMutability":"nonpayable"},{"type":"function","name":"afterInitialize","inputs":[{"name":"sender","type":"address","internalType":"address"},{"name":"key","type":"tuple","internalType":"struct PoolKey","components":[{"name":"currency0","type":"address","internalType":"Currency"},{"name":"currency1","type":"address","internalType":"Currency"},{"name":"fee","type":"uint24","internalType":"uint24"},{"name":"tickSpacing","type":"int24","internalType":"int24"},{"name":"hooks","type":"address","internalType":"contract IHooks"}]},{"name":"sqrtPriceX96","type":"uint160","internalType":"uint160"},{"name":"tick","type":"int24","internalType":"int24"}],"outputs":[{"name":"","type":"bytes4","internalType":"bytes4"}],"stateMutability":"nonpayable"},{"type":"function","name":"afterRemoveLiquidity","inputs":[{"name":"sender","type":"address","internalType":"address"},{"name":"key","type":"tuple","internalType":"struct PoolKey","components":[{"name":"currency0","type":"address","internalType":"Currency"},{"name":"currency1","type":"address","internalType":"Currency"},{"name":"fee","type":"uint24","internalType":"uint24"},{"name":"tickSpacing","type":"int24","internalType":"int24"},{"name":"hooks","type":"address","internalType":"contract IHooks"}]},{"name":"params","type":"tuple","internalType":"struct ModifyLiquidityParams","components":[{"name":"tickLower","type":"int24","internalType":"int24"},{"name":"tickUpper","type":"int24","internalType":"int24"},{"name":"liquidityDelta","type":"int256","internalType":"int256"},{"name":"salt","type":"bytes32","internalType":"bytes32"}]},{"name":"delta","type":"int256","internalType":"BalanceDelta"},{"name":"feesAccrued","type":"int256","internalType":"BalanceDelta"},{"name":"hookData","type":"bytes","internalType":"bytes"}],"outputs":[{"name":"","type":"bytes4","internalType":"bytes4"},{"name":"","type":"int256","internalType":"BalanceDelta"}],"stateMutability":"nonpayable"},{"type":"function","name":"afterSwap","inputs":[{"name":"sender","type":"address","internalType":"address"},{"name":"key","type":"tuple","internalType":"struct PoolKey","components":[{"name":"currency0","type":"address","internalType":"Currency"},{"name":"currency1","type":"address","internalType":"Currency"},{"name":"fee","type":"uint24","internalType":"uint24"},{"name":"tickSpacing","type":"int24","internalType":"int24"},{"name":"hooks","type":"address","internalType":"contract IHooks"}]},{"name":"params","type":"tuple","internalType":"struct SwapParams","components":[{"name":"zeroForOne","type":"bool","internalType":"bool"},{"name":"amountSpecified","type":"int256","internalType":"int256"},{"name":"sqrtPriceLimitX96","type":"uint160","internalType":"uint160"}]},{"name":"delta","type":"int256","internalType":"BalanceDelta"},{"name":"hookData","type":"bytes","internalType":"bytes"}],"outputs":[{"name":"","type":"bytes4","internalType":"bytes4"},{"name":"","type":"int128","internalType":"int128"}],"stateMutability":"nonpayable"},{"type":"function","name":"beforeAddLiquidity","inputs":[{"name":"sender","type":"address","internalType":"address"},{"name":"key","type":"tuple","internalType":"struct PoolKey","components":[{"name":"currency0","type":"address","internalType":"Currency"},{"name":"currency1","type":"address","internalType":"Currency"},{"name":"fee","type":"uint24","internalType":"uint24"},{"name":"tickSpacing","type":"int24","internalType":"int24"},{"name":"hooks","type":"address","internalType":"contract IHooks"}]},{"name":"params","type":"tuple","internalType":"struct ModifyLiquidityParams","components":[{"name":"tickLower","type":"int24","internalType":"int24"},{"name":"tickUpper","type":"int24","internalType":"int24"},{"name":"liquidityDelta","type":"int256","internalType":"int256"},{"name":"salt","type":"bytes32","internalType":"bytes32"}]},{"name":"hookData","type":"bytes","internalType":"bytes"}],"outputs":[{"name":"","type":"bytes4","internalType":"bytes4"}],"stateMutability":"nonpayable"},{"type":"function","name":"beforeDonate","inputs":[{"name":"sender","type":"address","internalType":"address"},{"name":"key","type":"tuple","internalType":"struct PoolKey","components":[{"name":"currency0","type":"address","internalType":"Currency"},{"name":"currency1","type":"address","internalType":"Currency"},{"name":"fee","type":"uint24","internalType":"uint24"},{"name":"tickSpacing","type":"int24","internalType":"int24"},{"name":"hooks","type":"address","internalType":"contract IHooks"}]},{"name":"amount0","type":"uint256","internalType":"uint256"},{"name":"amount1","type":"uint256","internalType":"uint256"},{"name":"hookData","type":"bytes","internalType":"bytes"}],"outputs":[{"name":"","type":"bytes4","internalType":"bytes4"}],"stateMutability":"nonpayable"},{"type":"function","name":"beforeInitialize","inputs":[{"name":"sender","type":"address","internalType":"address"},{"name":"key","type":"tuple","internalType":"struct PoolKey","components":[{"name":"currency0","type":"address","internalType":"Currency"},{"name":"currency1","type":"address","internalType":"Currency"},{"name":"fee","type":"uint24","internalType":"uint24"},{"name":"tickSpacing","type":"int24","internalType":"int24"},{"name":"hooks","type":"address","internalType":"contract IHooks"}]},{"name":"sqrtPriceX96","type":"uint160","internalType":"uint160"}],"outputs":[{"name":"","type":"bytes4","internalType":"bytes4"}],"stateMutability":"nonpayable"},{"type":"function","name":"beforeRemoveLiquidity","inputs":[{"name":"sender","type":"address","internalType":"address"},{"name":"key","type":"tuple","internalType":"struct PoolKey","components":[{"name":"currency0","type":"address","internalType":"Currency"},{"name":"currency1","type":"address","internalType":"Currency"},{"name":"fee","type":"uint24","internalType":"uint24"},{"name":"tickSpacing","type":"int24","internalType":"int24"},{"name":"hooks","type":"address","internalType":"contract IHooks"}]},{"name":"params","type":"tuple","internalType":"struct ModifyLiquidityParams","components":[{"name":"tickLower","type":"int24","internalType":"int24"},{"name":"tickUpper","type":"int24","internalType":"int24"},{"name":"liquidityDelta","type":"int256","internalType":"int256"},{"name":"salt","type":"bytes32","internalType":"bytes32"}]},{"name":"hookData","type":"bytes","internalType":"bytes"}],"outputs":[{"name":"","type":"bytes4","internalType":"bytes4"}],"stateMutability":"nonpayable"},{"type":"function","name":"beforeSwap","inputs":[{"name":"sender","type":"address","internalType":"address"},{"name":"key","type":"tuple","internalType":"struct PoolKey","components":[{"name":"currency0","type":"address","internalType":"Currency"},{"name":"currency1","type":"address","internalType":"Currency"},{"name":"fee","type":"uint24","internalType":"uint24"},{"name":"tickSpacing","type":"int24","internalType":"int24"},{"name":"hooks","type":"address","internalType":"contract IHooks"}]},{"name":"params","type":"tuple","internalType":"struct SwapParams","components":[{"name":"zeroForOne","type":"bool","internalType":"bool"},{"name":"amountSpecified","type":"int256","internalType":"int256"},{"name":"sqrtPriceLimitX96","type":"uint160","internalType":"uint160"}]},{"name":"hookData","type":"bytes","internalType":"bytes"}],"outputs":[{"name":"","type":"bytes4","internalType":"bytes4"},{"name":"","type":"int256","internalType":"BeforeSwapDelta"},{"name":"","type":"uint24","internalType":"uint24"}],"stateMutability":"nonpayable"},{"type":"function","name":"getHookPermissions","inputs":[],"outputs":[{"name":"p","type":"tuple","internalType":"struct Hooks.Permissions","components":[{"name":"beforeInitialize","type":"bool","internalType":"bool"},{"name":"afterInitialize","type":"bool","internalType":"bool"},{"name":"beforeAddLiquidity","type":"bool","internalType":"bool"},{"name":"afterAddLiquidity","type":"bool","internalType":"bool"},{"name":"beforeRemoveLiquidity","type":"bool","internalType":"bool"},{"name":"afterRemoveLiquidity","type":"bool","internalType":"bool"},{"name":"beforeSwap","type":"bool","internalType":"bool"},{"name":"afterSwap","type":"bool","internalType":"bool"},{"name":"beforeDonate","type":"bool","internalType":"bool"},{"name":"afterDonate","type":"bool","internalType":"bool"},{"name":"beforeSwapReturnDelta","type":"bool","internalType":"bool"},{"name":"afterSwapReturnDelta","type":"bool","internalType":"bool"},{"name":"afterAddLiquidityReturnDelta","type":"bool","internalType":"bool"},{"name":"afterRemoveLiquidityReturnDelta","type":"bool","internalType":"bool"}]}],"stateMutability":"pure"},{"type":"function","name":"poolManager","inputs":[],"outputs":[{"name":"","type":"address","internalType":"contract IPoolManager"}],"stateMutability":"view"},{"type":"event","name":"Tick","inputs":[{"name":"id","type":"bytes32","indexed":true,"internalType":"PoolId"},{"name":"timestamp","type":"uint256","indexed":false,"internalType":"uint256"}],"anonymous":false},{"type":"error","name":"HookNotImplemented","inputs":[]},{"type":"error","name":"NotPoolManager","inputs":[]}],"bytecode":{"object":"0x60a060405234801561000f575f80fd5b50604051611cf6380380611cf68339818101604052810190610031919061057c565b80808073ffffffffffffffffffffffffffffffffffffffff1660808173ffffffffffffffffffffffffffffffffffffffff1681525050506100773061007e60201b60201c565b50506105a7565b61009b8161009061009e60201b60201c565b6100ba60201b60201c565b50565b6100a6610490565b60018160e001901515908115158152505090565b6100e56120008373ffffffffffffffffffffffffffffffffffffffff1661044960201b90919060201c565b1515815f0151151514158061012c57506101206110008373ffffffffffffffffffffffffffffffffffffffff1661044960201b90919060201c565b15158160200151151514155b80610169575061015d6108008373ffffffffffffffffffffffffffffffffffffffff1661044960201b90919060201c565b15158160400151151514155b806101a6575061019a6104008373ffffffffffffffffffffffffffffffffffffffff1661044960201b90919060201c565b15158160600151151514155b806101e357506101d76102008373ffffffffffffffffffffffffffffffffffffffff1661044960201b90919060201c565b15158160800151151514155b8061022057506102146101008373ffffffffffffffffffffffffffffffffffffffff1661044960201b90919060201c565b15158160a00151151514155b8061025c575061025060808373ffffffffffffffffffffffffffffffffffffffff1661044960201b90919060201c565b15158160c00151151514155b80610298575061028c60408373ffffffffffffffffffffffffffffffffffffffff1661044960201b90919060201c565b15158160e00151151514155b806102d557506102c860208373ffffffffffffffffffffffffffffffffffffffff1661044960201b90919060201c565b1515816101000151151514155b80610312575061030560108373ffffffffffffffffffffffffffffffffffffffff1661044960201b90919060201c565b1515816101200151151514155b8061034f575061034260088373ffffffffffffffffffffffffffffffffffffffff1661044960201b90919060201c565b1515816101400151151514155b8061038c575061037f60048373ffffffffffffffffffffffffffffffffffffffff1661044960201b90919060201c565b1515816101600151151514155b806103c957506103bc60028373ffffffffffffffffffffffffffffffffffffffff1661044960201b90919060201c565b1515816101800151151514155b8061040657506103f960018373ffffffffffffffffffffffffffffffffffffffff1661044960201b90919060201c565b1515816101a00151151514155b15610445576104448263e65af6a060e01b7bffffffffffffffffffffffffffffffffffffffffffffffffffffffff191661046e60201b90919060201c565b5b5050565b5f8082841673ffffffffffffffffffffffffffffffffffffffff161415905092915050565b815f5273ffffffffffffffffffffffffffffffffffffffff811660045260245ffd5b604051806101c001604052805f151581526020015f151581526020015f151581526020015f151581526020015f151581526020015f151581526020015f151581526020015f151581526020015f151581526020015f151581526020015f151581526020015f151581526020015f151581526020015f151581525090565b5f80fd5b5f73ffffffffffffffffffffffffffffffffffffffff82169050919050565b5f61053a82610511565b9050919050565b5f61054b82610530565b9050919050565b61055b81610541565b8114610565575f80fd5b50565b5f8151905061057681610552565b92915050565b5f602082840312156105915761059061050d565b5b5f61059e84828501610568565b91505092915050565b6080516116f16106055f395f81816102da0152818161037801528181610418015281816104bd01528181610562015281816105ff015281816106a501528181610748015281816108030152818161082801526108c201526116f15ff3fe608060405234801561000f575f80fd5b50600436106100b2575f3560e01c8063b47b2fb11161006f578063b47b2fb1146101da578063b6a8b0fa1461020b578063c4e833ce1461023b578063dc4c90d314610259578063dc98354e14610277578063e1b4af69146102a7576100b2565b806321d0ee70146100b6578063259982e5146100e6578063575e24b4146101165780636c2bbe7e146101485780636fe7e6eb146101795780639f063efc146101a9575b5f80fd5b6100d060048036038101906100cb9190610d2d565b6102d7565b6040516100dd9190610ded565b60405180910390f35b61010060048036038101906100fb9190610d2d565b610375565b60405161010d9190610ded565b60405180910390f35b610130600480360381019061012b9190610e24565b610413565b60405161013f93929190610f09565b60405180910390f35b610162600480360381019061015d9190610f68565b6104b9565b604051610170929190611025565b60405180910390f35b610193600480360381019061018e91906110ac565b61055f565b6040516101a09190610ded565b60405180910390f35b6101c360048036038101906101be9190610f68565b6105fb565b6040516101d1929190611025565b60405180910390f35b6101f460048036038101906101ef9190611111565b6106a1565b6040516102029291906111c5565b60405180910390f35b6102256004803603810190610220919061121f565b610745565b6040516102329190610ded565b60405180910390f35b6102436107e5565b60405161025091906113ef565b60405180910390f35b610261610801565b60405161026e919061145b565b60405180910390f35b610291600480360381019061028c9190611474565b610825565b60405161029e9190610ded565b60405180910390f35b6102c160048036038101906102bc919061121f565b6108bf565b6040516102ce9190610ded565b60405180910390f35b5f7f000000000000000000000000000000000000000000000000000000000000000073ffffffffffffffffffffffffffffffffffffffff163373ffffffffffffffffffffffffffffffffffffffff161461035d576040517fae18210a00000000000000000000000000000000000000000000000000000000815260040160405180910390fd5b61036a868686868661095f565b905095945050505050565b5f7f000000000000000000000000000000000000000000000000000000000000000073ffffffffffffffffffffffffffffffffffffffff163373ffffffffffffffffffffffffffffffffffffffff16146103fb576040517fae18210a00000000000000000000000000000000000000000000000000000000815260040160405180910390fd5b6104088686868686610992565b905095945050505050565b5f805f7f000000000000000000000000000000000000000000000000000000000000000073ffffffffffffffffffffffffffffffffffffffff163373ffffffffffffffffffffffffffffffffffffffff161461049b576040517fae18210a00000000000000000000000000000000000000000000000000000000815260040160405180910390fd5b6104a888888888886109c5565b925092509250955095509592505050565b5f807f000000000000000000000000000000000000000000000000000000000000000073ffffffffffffffffffffffffffffffffffffffff163373ffffffffffffffffffffffffffffffffffffffff1614610540576040517fae18210a00000000000000000000000000000000000000000000000000000000815260040160405180910390fd5b61054f898989898989896109fa565b9150915097509795505050505050565b5f7f000000000000000000000000000000000000000000000000000000000000000073ffffffffffffffffffffffffffffffffffffffff163373ffffffffffffffffffffffffffffffffffffffff16146105e5576040517fae18210a00000000000000000000000000000000000000000000000000000000815260040160405180910390fd5b6105f185858585610a2e565b9050949350505050565b5f807f000000000000000000000000000000000000000000000000000000000000000073ffffffffffffffffffffffffffffffffffffffff163373ffffffffffffffffffffffffffffffffffffffff1614610682576040517fae18210a00000000000000000000000000000000000000000000000000000000815260040160405180910390fd5b61069189898989898989610a61565b9150915097509795505050505050565b5f807f000000000000000000000000000000000000000000000000000000000000000073ffffffffffffffffffffffffffffffffffffffff163373ffffffffffffffffffffffffffffffffffffffff1614610728576040517fae18210a00000000000000000000000000000000000000000000000000000000815260040160405180910390fd5b610736888888888888610a95565b91509150965096945050505050565b5f7f000000000000000000000000000000000000000000000000000000000000000073ffffffffffffffffffffffffffffffffffffffff163373ffffffffffffffffffffffffffffffffffffffff16146107cb576040517fae18210a00000000000000000000000000000000000000000000000000000000815260040160405180910390fd5b6107d9878787878787610aff565b90509695505050505050565b6107ed610ba4565b60018160e001901515908115158152505090565b7f000000000000000000000000000000000000000000000000000000000000000081565b5f7f000000000000000000000000000000000000000000000000000000000000000073ffffffffffffffffffffffffffffffffffffffff163373ffffffffffffffffffffffffffffffffffffffff16146108ab576040517fae18210a00000000000000000000000000000000000000000000000000000000815260040160405180910390fd5b6108b6848484610b32565b90509392505050565b5f7f000000000000000000000000000000000000000000000000000000000000000073ffffffffffffffffffffffffffffffffffffffff163373ffffffffffffffffffffffffffffffffffffffff1614610945576040517fae18210a00000000000000000000000000000000000000000000000000000000815260040160405180910390fd5b610953878787878787610b65565b90509695505050505050565b5f6040517f0a85dc2900000000000000000000000000000000000000000000000000000000815260040160405180910390fd5b5f6040517f0a85dc2900000000000000000000000000000000000000000000000000000000815260040160405180910390fd5b5f805f6040517f0a85dc2900000000000000000000000000000000000000000000000000000000815260040160405180910390fd5b5f806040517f0a85dc2900000000000000000000000000000000000000000000000000000000815260040160405180910390fd5b5f6040517f0a85dc2900000000000000000000000000000000000000000000000000000000815260040160405180910390fd5b5f806040517f0a85dc2900000000000000000000000000000000000000000000000000000000815260040160405180910390fd5b5f80610ab087803603810190610aab9190611668565b610b98565b7f3253d5c6d3465dd2c39d24e6a446877cd9f06a3b4dc420ebf07ede013393750842604051610adf91906116a2565b60405180910390a263b47b2fb160e01b5f91509150965096945050505050565b5f6040517f0a85dc2900000000000000000000000000000000000000000000000000000000815260040160405180910390fd5b5f6040517f0a85dc2900000000000000000000000000000000000000000000000000000000815260040160405180910390fd5b5f6040517f0a85dc2900000000000000000000000000000000000000000000000000000000815260040160405180910390fd5b5f60a082209050919050565b604051806101c001604052805f151581526020015f151581526020015f151581526020015f151581526020015f151581526020015f151581526020015f151581526020015f151581526020015f151581526020015f151581526020015f151581526020015f151581526020015f151581526020015f151581525090565b5f604051905090565b5f80fd5b5f80fd5b5f73ffffffffffffffffffffffffffffffffffffffff82169050919050565b5f610c5b82610c32565b9050919050565b610c6b81610c51565b8114610c75575f80fd5b50565b5f81359050610c8681610c62565b92915050565b5f80fd5b5f60a08284031215610ca557610ca4610c8c565b5b81905092915050565b5f60808284031215610cc357610cc2610c8c565b5b81905092915050565b5f80fd5b5f80fd5b5f80fd5b5f8083601f840112610ced57610cec610ccc565b5b8235905067ffffffffffffffff811115610d0a57610d09610cd0565b5b602083019150836001820283011115610d2657610d25610cd4565b5b9250929050565b5f805f805f6101608688031215610d4757610d46610c2a565b5b5f610d5488828901610c78565b9550506020610d6588828901610c90565b94505060c0610d7688828901610cae565b93505061014086013567ffffffffffffffff811115610d9857610d97610c2e565b5b610da488828901610cd8565b92509250509295509295909350565b5f7fffffffff0000000000000000000000000000000000000000000000000000000082169050919050565b610de781610db3565b82525050565b5f602082019050610e005f830184610dde565b92915050565b5f60608284031215610e1b57610e1a610c8c565b5b81905092915050565b5f805f805f6101408688031215610e3e57610e3d610c2a565b5b5f610e4b88828901610c78565b9550506020610e5c88828901610c90565b94505060c0610e6d88828901610e06565b93505061012086013567ffffffffffffffff811115610e8f57610e8e610c2e565b5b610e9b88828901610cd8565b92509250509295509295909350565b5f819050919050565b5f819050919050565b5f610ed6610ed1610ecc84610eaa565b610eb3565b610eaa565b9050919050565b610ee681610ebc565b82525050565b5f62ffffff82169050919050565b610f0381610eec565b82525050565b5f606082019050610f1c5f830186610dde565b610f296020830185610edd565b610f366040830184610efa565b949350505050565b610f4781610eaa565b8114610f51575f80fd5b50565b5f81359050610f6281610f3e565b92915050565b5f805f805f805f6101a0888a031215610f8457610f83610c2a565b5b5f610f918a828b01610c78565b9750506020610fa28a828b01610c90565b96505060c0610fb38a828b01610cae565b955050610140610fc58a828b01610f54565b945050610160610fd78a828b01610f54565b93505061018088013567ffffffffffffffff811115610ff957610ff8610c2e565b5b6110058a828b01610cd8565b925092505092959891949750929550565b61101f81610ebc565b82525050565b5f6040820190506110385f830185610dde565b6110456020830184611016565b9392505050565b61105581610c32565b811461105f575f80fd5b50565b5f813590506110708161104c565b92915050565b5f8160020b9050919050565b61108b81611076565b8114611095575f80fd5b50565b5f813590506110a681611082565b92915050565b5f805f8061010085870312156110c5576110c4610c2a565b5b5f6110d287828801610c78565b94505060206110e387828801610c90565b93505060c06110f487828801611062565b92505060e061110587828801611098565b91505092959194509250565b5f805f805f80610160878903121561112c5761112b610c2a565b5b5f61113989828a01610c78565b965050602061114a89828a01610c90565b95505060c061115b89828a01610e06565b94505061012061116d89828a01610f54565b93505061014087013567ffffffffffffffff81111561118f5761118e610c2e565b5b61119b89828a01610cd8565b92509250509295509295509295565b5f81600f0b9050919050565b6111bf816111aa565b82525050565b5f6040820190506111d85f830185610dde565b6111e560208301846111b6565b9392505050565b5f819050919050565b6111fe816111ec565b8114611208575f80fd5b50565b5f81359050611219816111f5565b92915050565b5f805f805f80610120878903121561123a57611239610c2a565b5b5f61124789828a01610c78565b965050602061125889828a01610c90565b95505060c061126989828a0161120b565b94505060e061127a89828a0161120b565b93505061010087013567ffffffffffffffff81111561129c5761129b610c2e565b5b6112a889828a01610cd8565b92509250509295509295509295565b5f8115159050919050565b6112cb816112b7565b82525050565b6101c082015f8201516112e65f8501826112c2565b5060208201516112f960208501826112c2565b50604082015161130c60408501826112c2565b50606082015161131f60608501826112c2565b50608082015161133260808501826112c2565b5060a082015161134560a08501826112c2565b5060c082015161135860c08501826112c2565b5060e082015161136b60e08501826112c2565b506101008201516113806101008501826112c2565b506101208201516113956101208501826112c2565b506101408201516113aa6101408501826112c2565b506101608201516113bf6101608501826112c2565b506101808201516113d46101808501826112c2565b506101a08201516113e96101a08501826112c2565b50505050565b5f6101c0820190506114035f8301846112d1565b92915050565b5f61142361141e61141984610c32565b610eb3565b610c32565b9050919050565b5f61143482611409565b9050919050565b5f6114458261142a565b9050919050565b6114558161143b565b82525050565b5f60208201905061146e5f83018461144c565b92915050565b5f805f60e0848603121561148b5761148a610c2a565b5b5f61149886828701610c78565b93505060206114a986828701610c90565b92505060c06114ba86828701611062565b9150509250925092565b5f80fd5b5f601f19601f8301169050919050565b7f4e487b71000000000000000000000000000000000000000000000000000000005f52604160045260245ffd5b61150e826114c8565b810181811067ffffffffffffffff8211171561152d5761152c6114d8565b5b80604052505050565b5f61153f610c21565b905061154b8282611505565b919050565b61155981610c51565b8114611563575f80fd5b50565b5f8135905061157481611550565b92915050565b61158381610eec565b811461158d575f80fd5b50565b5f8135905061159e8161157a565b92915050565b5f6115ae82610c51565b9050919050565b6115be816115a4565b81146115c8575f80fd5b50565b5f813590506115d9816115b5565b92915050565b5f60a082840312156115f4576115f36114c4565b5b6115fe60a0611536565b90505f61160d84828501611566565b5f83015250602061162084828501611566565b602083015250604061163484828501611590565b604083015250606061164884828501611098565b606083015250608061165c848285016115cb565b60808301525092915050565b5f60a0828403121561167d5761167c610c2a565b5b5f61168a848285016115df565b91505092915050565b61169c816111ec565b82525050565b5f6020820190506116b55f830184611693565b9291505056fea2646970667358221220cb32950f436a4e00469b4e02a92dc98d11927780436ba675ec5c55332f38248264736f6c634300081a0033","linkReferences":{}},"methodIdentifiers":{"afterAddLiquidity(address,(address,address,uint24,int24,address),(int24,int24,int256,bytes32),int256,int256,bytes)":"9f063efc","afterDonate(address,(address,address,uint24,int24,address),uint256,uint256,bytes)":"e1b4af69","afterInitialize(address,(address,address,uint24,int24,address),uint160,int24)":"6fe7e6eb","afterRemoveLiquidity(address,(address,address,uint24,int24,address),(int24,int24,int256,bytes32),int256,int256,bytes)":"6c2bbe7e","afterSwap(address,(address,address,uint24,int24,address),(bool,int256,uint160),int256,bytes)":"b47b2fb1","beforeAddLiquidity(address,(address,address,uint24,int24,address),(int24,int24,int256,bytes32),bytes)":"259982e5","beforeDonate(address,(address,address,uint24,int24,address),uint256,uint256,bytes)":"b6a8b0fa","beforeInitialize(address,(address,address,uint24,int24,address),uint160)":"dc98354e","beforeRemoveLiquidity(address,(address,address,uint24,int24,address),(int24,int24,int256,bytes32),bytes)":"21d0ee70","beforeSwap(address,(address,address,uint24,int24,address),(bool,int256,uint160),bytes)":"575e24b4","getHookPermissions()":"c4e833ce","poolManager()":"dc4c90d3"},"id":99}