{"abi":[{"type":"constructor","inputs":[{"name":"_manager","type":"address","internalType":"contract IPoolManager"}],"stateMutability":"nonpayable"},{"type":"receive","stateMutability":"payable"},{"type":"function","name":"donate","inputs":[{"name":"key","type":"tuple","internalType":"struct PoolKey","components":[{"name":"currency0","type":"address","internalType":"Currency"},{"name":"currency1","type":"address","internalType":"Currency"},{"name":"fee","type":"uint24","internalType":"uint24"},{"name":"tickSpacing","type":"int24","internalType":"int24"},{"name":"hooks","type":"address","internalType":"contract IHooks"}]},{"name":"amt0","type":"uint256","internalType":"uint256"},{"name":"amt1","type":"uint256","internalType":"uint256"},{"name":"hookData","type":"bytes","internalType":"bytes"}],"outputs":[],"stateMutability":"nonpayable"},{"type":"function","name":"manager","inputs":[],"outputs":[{"name":"","type":"address","internalType":"contract IPoolManager"}],"stateMutability":"view"},{"type":"function","name":"unlockCallback","inputs":[{"name":"data","type":"bytes","internalType":"bytes"}],"outputs":[{"name":"","type":"bytes","internalType":"bytes"}],"stateMutability":"nonpayable"}],"bytecode":{"object":"0x60a060405234801561000f575f80fd5b50604051611c27380380611c27833981810160405281019061003191906100da565b8073ffffffffffffffffffffffffffffffffffffffff1660808173ffffffffffffffffffffffffffffffffffffffff168152505050610105565b5f80fd5b5f73ffffffffffffffffffffffffffffffffffffffff82169050919050565b5f6100988261006f565b9050919050565b5f6100a98261008e565b9050919050565b6100b98161009f565b81146100c3575f80fd5b50565b5f815190506100d4816100b0565b92915050565b5f602082840312156100ef576100ee61006b565b5b5f6100fc848285016100c6565b91505092915050565b608051611abd61016a5f395f818161028a015281816103a3015281816105060152818161052c015281816105f5015281816106ac0152818161073a015281816108b3015281816109ce01528181610b4d01528181610bce0152610ce70152611abd5ff3fe608060405260043610610037575f3560e01c8063234266d714610042578063481c6a751461006a57806391dd7346146100945761003e565b3661003e57005b5f80fd5b34801561004d575f80fd5b506100686004803603810190610063919061115b565b6100d0565b005b348015610075575f80fd5b5061007e610504565b60405161008b9190611237565b60405180910390f35b34801561009f575f80fd5b506100ba60048036038101906100b591906112ad565b610528565b6040516100c79190611358565b60405180910390f35b5f845f015190505f85602001519050610101865f015173ffffffffffffffffffffffffffffffffffffffff16610842565b15801561010d57505f85115b15610191578173ffffffffffffffffffffffffffffffffffffffff166323b872dd3330886040518463ffffffff1660e01b815260040161014f93929190611396565b6020604051808303815f875af115801561016b573d5f803e3d5ffd5b505050506040513d601f19601f8201168201806040525081019061018f9190611400565b505b6101b4866020015173ffffffffffffffffffffffffffffffffffffffff16610842565b1580156101c057505f84115b15610244578073ffffffffffffffffffffffffffffffffffffffff166323b872dd3330876040518463ffffffff1660e01b815260040161020293929190611396565b6020604051808303815f875af115801561021e573d5f803e3d5ffd5b505050506040513d601f19601f820116820180604052508101906102429190611400565b505b5f60405180608001604052808881526020018781526020018681526020018581525060405160200161027691906115a7565b60405160208183030381529060405290505f7f000000000000000000000000000000000000000000000000000000000000000073ffffffffffffffffffffffffffffffffffffffff16826040516024016102d09190611358565b6040516020818303038152906040527f81548319000000000000000000000000000000000000000000000000000000007bffffffffffffffffffffffffffffffffffffffffffffffffffffffff19166020820180517bffffffffffffffffffffffffffffffffffffffffffffffffffffffff838183161783525050505060405161035a9190611601565b5f604051808303815f865af19150503d805f8114610393576040519150601f19603f3d011682016040523d82523d5f602084013e610398565b606091505b50509050806104fa577f000000000000000000000000000000000000000000000000000000000000000073ffffffffffffffffffffffffffffffffffffffff1630836040516024016103eb929190611617565b6040516020818303038152906040527f9ca17998000000000000000000000000000000000000000000000000000000007bffffffffffffffffffffffffffffffffffffffffffffffffffffffff19166020820180517bffffffffffffffffffffffffffffffffffffffffffffffffffffffff83818316178352505050506040516104759190611601565b5f604051808303815f865af19150503d805f81146104ae576040519150601f19603f3d011682016040523d82523d5f602084013e6104b3565b606091505b505080915050806104f9576040517f08c379a00000000000000000000000000000000000000000000000000000000081526004016104f0906116c5565b60405180910390fd5b5b5050505050505050565b7f000000000000000000000000000000000000000000000000000000000000000081565b60607f000000000000000000000000000000000000000000000000000000000000000073ffffffffffffffffffffffffffffffffffffffff163373ffffffffffffffffffffffffffffffffffffffff16146105b8576040517f08c379a00000000000000000000000000000000000000000000000000000000081526004016105af9061172d565b60405180910390fd5b5f83838101906105c891906117dd565b90506105ef815f01515f015173ffffffffffffffffffffffffffffffffffffffff16610842565b610680577f000000000000000000000000000000000000000000000000000000000000000073ffffffffffffffffffffffffffffffffffffffff1663a5841194825f01515f01516040518263ffffffff1660e01b81526004016106529190611833565b5f604051808303815f87803b158015610669575f80fd5b505af115801561067b573d5f803e3d5ffd5b505050505b6106a6815f01516020015173ffffffffffffffffffffffffffffffffffffffff16610842565b610738577f000000000000000000000000000000000000000000000000000000000000000073ffffffffffffffffffffffffffffffffffffffff1663a5841194825f0151602001516040518263ffffffff1660e01b815260040161070a9190611833565b5f604051808303815f87803b158015610721575f80fd5b505af1158015610733573d5f803e3d5ffd5b505050505b7f000000000000000000000000000000000000000000000000000000000000000073ffffffffffffffffffffffffffffffffffffffff1663234266d7825f01518360200151846040015185606001516040518563ffffffff1660e01b81526004016107a694939291906118b2565b6020604051808303815f875af11580156107c2573d5f803e3d5ffd5b505050506040513d601f19601f820116820180604052508101906107e69190611930565b505f8160200151111561080857610807815f01515f01518260200151610879565b5b5f8160400151111561082a57610829815f0151602001518260400151610879565b5b60405180602001604052805f81525091505092915050565b5f8073ffffffffffffffffffffffffffffffffffffffff168273ffffffffffffffffffffffffffffffffffffffff16149050919050565b5f8290505f73ffffffffffffffffffffffffffffffffffffffff168173ffffffffffffffffffffffffffffffffffffffff1603610b2f575f7f000000000000000000000000000000000000000000000000000000000000000073ffffffffffffffffffffffffffffffffffffffff1683856040516024016108fa9190611833565b6040516020818303038152906040527f82b4b253000000000000000000000000000000000000000000000000000000007bffffffffffffffffffffffffffffffffffffffffffffffffffffffff19166020820180517bffffffffffffffffffffffffffffffffffffffffffffffffffffffff83818316178352505050506040516109849190611601565b5f6040518083038185875af1925050503d805f81146109be576040519150601f19603f3d011682016040523d82523d5f602084013e6109c3565b606091505b5050905080610b29577f000000000000000000000000000000000000000000000000000000000000000073ffffffffffffffffffffffffffffffffffffffff1683853086604051602401610a199392919061195b565b6040516020818303038152906040527f851d9d04000000000000000000000000000000000000000000000000000000007bffffffffffffffffffffffffffffffffffffffffffffffffffffffff19166020820180517bffffffffffffffffffffffffffffffffffffffffffffffffffffffff8381831617835250505050604051610aa39190611601565b5f6040518083038185875af1925050503d805f8114610add576040519150601f19603f3d011682016040523d82523d5f602084013e610ae2565b606091505b50508091505080610b28576040517f08c379a0000000000000000000000000000000000000000000000000000000008152600401610b1f906119da565b60405180910390fd5b5b50610e42565b8073ffffffffffffffffffffffffffffffffffffffff1663a9059cbb7f0000000000000000000000000000000000000000000000000000000000000000846040518363ffffffff1660e01b8152600401610b8a9291906119f8565b6020604051808303815f875af1158015610ba6573d5f803e3d5ffd5b505050506040513d601f19601f82011682018060405250810190610bca9190611400565b505f7f000000000000000000000000000000000000000000000000000000000000000073ffffffffffffffffffffffffffffffffffffffff1684604051602401610c149190611833565b6040516020818303038152906040527f82b4b253000000000000000000000000000000000000000000000000000000007bffffffffffffffffffffffffffffffffffffffffffffffffffffffff19166020820180517bffffffffffffffffffffffffffffffffffffffffffffffffffffffff8381831617835250505050604051610c9e9190611601565b5f604051808303815f865af19150503d805f8114610cd7576040519150601f19603f3d011682016040523d82523d5f602084013e610cdc565b606091505b5050905080610e40577f000000000000000000000000000000000000000000000000000000000000000073ffffffffffffffffffffffffffffffffffffffff16843085604051602401610d319392919061195b565b6040516020818303038152906040527f851d9d04000000000000000000000000000000000000000000000000000000007bffffffffffffffffffffffffffffffffffffffffffffffffffffffff19166020820180517bffffffffffffffffffffffffffffffffffffffffffffffffffffffff8381831617835250505050604051610dbb9190611601565b5f604051808303815f865af19150503d805f8114610df4576040519150601f19603f3d011682016040523d82523d5f602084013e610df9565b606091505b50508091505080610e3f576040517f08c379a0000000000000000000000000000000000000000000000000000000008152600401610e3690611a69565b60405180910390fd5b5b505b505050565b5f604051905090565b5f80fd5b5f80fd5b5f80fd5b5f601f19601f8301169050919050565b7f4e487b71000000000000000000000000000000000000000000000000000000005f52604160045260245ffd5b610ea282610e5c565b810181811067ffffffffffffffff82111715610ec157610ec0610e6c565b5b80604052505050565b5f610ed3610e47565b9050610edf8282610e99565b919050565b5f80fd5b5f73ffffffffffffffffffffffffffffffffffffffff82169050919050565b5f610f1182610ee8565b9050919050565b610f2181610f07565b8114610f2b575f80fd5b50565b5f81359050610f3c81610f18565b92915050565b5f62ffffff82169050919050565b610f5981610f42565b8114610f63575f80fd5b50565b5f81359050610f7481610f50565b92915050565b5f8160020b9050919050565b610f8f81610f7a565b8114610f99575f80fd5b50565b5f81359050610faa81610f86565b92915050565b5f610fba82610f07565b9050919050565b610fca81610fb0565b8114610fd4575f80fd5b50565b5f81359050610fe581610fc1565b92915050565b5f60a0828403121561100057610fff610e58565b5b61100a60a0610eca565b90505f61101984828501610f2e565b5f83015250602061102c84828501610f2e565b602083015250604061104084828501610f66565b604083015250606061105484828501610f9c565b606083015250608061106884828501610fd7565b60808301525092915050565b5f819050919050565b61108681611074565b8114611090575f80fd5b50565b5f813590506110a18161107d565b92915050565b5f80fd5b5f80fd5b5f67ffffffffffffffff8211156110c9576110c8610e6c565b5b6110d282610e5c565b9050602081019050919050565b828183375f83830152505050565b5f6110ff6110fa846110af565b610eca565b90508281526020810184848401111561111b5761111a6110ab565b5b6111268482856110df565b509392505050565b5f82601f830112611142576111416110a7565b5b81356111528482602086016110ed565b91505092915050565b5f805f80610100858703121561117457611173610e50565b5b5f61118187828801610feb565b94505060a061119287828801611093565b93505060c06111a387828801611093565b92505060e085013567ffffffffffffffff8111156111c4576111c3610e54565b5b6111d08782880161112e565b91505092959194509250565b5f819050919050565b5f6111ff6111fa6111f584610ee8565b6111dc565b610ee8565b9050919050565b5f611210826111e5565b9050919050565b5f61122182611206565b9050919050565b61123181611217565b82525050565b5f60208201905061124a5f830184611228565b92915050565b5f80fd5b5f80fd5b5f8083601f84011261126d5761126c6110a7565b5b8235905067ffffffffffffffff81111561128a57611289611250565b5b6020830191508360018202830111156112a6576112a5611254565b5b9250929050565b5f80602083850312156112c3576112c2610e50565b5b5f83013567ffffffffffffffff8111156112e0576112df610e54565b5b6112ec85828601611258565b92509250509250929050565b5f81519050919050565b5f82825260208201905092915050565b8281835e5f83830152505050565b5f61132a826112f8565b6113348185611302565b9350611344818560208601611312565b61134d81610e5c565b840191505092915050565b5f6020820190508181035f8301526113708184611320565b905092915050565b61138181610f07565b82525050565b61139081611074565b82525050565b5f6060820190506113a95f830186611378565b6113b66020830185611378565b6113c36040830184611387565b949350505050565b5f8115159050919050565b6113df816113cb565b81146113e9575f80fd5b50565b5f815190506113fa816113d6565b92915050565b5f6020828403121561141557611414610e50565b5b5f611422848285016113ec565b91505092915050565b5f61143582611206565b9050919050565b6114458161142b565b82525050565b61145481610f42565b82525050565b61146381610f7a565b82525050565b5f61147382611206565b9050919050565b61148381611469565b82525050565b60a082015f82015161149d5f85018261143c565b5060208201516114b0602085018261143c565b5060408201516114c3604085018261144b565b5060608201516114d6606085018261145a565b5060808201516114e9608085018261147a565b50505050565b6114f881611074565b82525050565b5f82825260208201905092915050565b5f611518826112f8565b61152281856114fe565b9350611532818560208601611312565b61153b81610e5c565b840191505092915050565b5f61010083015f83015161155c5f860182611489565b50602083015161156f60a08601826114ef565b50604083015161158260c08601826114ef565b50606083015184820360e086015261159a828261150e565b9150508091505092915050565b5f6020820190508181035f8301526115bf8184611546565b905092915050565b5f81905092915050565b5f6115db826112f8565b6115e581856115c7565b93506115f5818560208601611312565b80840191505092915050565b5f61160c82846115d1565b915081905092915050565b5f60408201905061162a5f830185611378565b818103602083015261163c8184611320565b90509392505050565b5f82825260208201905092915050565b7f506f6f6c4d616e616765722e6c6f636b28616464726573732c627974657329205f8201527f6661696c65640000000000000000000000000000000000000000000000000000602082015250565b5f6116af602683611645565b91506116ba82611655565b604082019050919050565b5f6020820190508181035f8301526116dc816116a3565b9050919050565b7f6e6f7420506f6f6c4d616e6167657200000000000000000000000000000000005f82015250565b5f611717600f83611645565b9150611722826116e3565b602082019050919050565b5f6020820190508181035f8301526117448161170b565b9050919050565b5f610100828403121561176157611760610e58565b5b61176b6080610eca565b90505f61177a84828501610feb565b5f8301525060a061178d84828501611093565b60208301525060c06117a184828501611093565b60408301525060e082013567ffffffffffffffff8111156117c5576117c4610ee4565b5b6117d18482850161112e565b60608301525092915050565b5f602082840312156117f2576117f1610e50565b5b5f82013567ffffffffffffffff81111561180f5761180e610e54565b5b61181b8482850161174b565b91505092915050565b61182d8161142b565b82525050565b5f6020820190506118465f830184611824565b92915050565b60a082015f8201516118605f85018261143c565b506020820151611873602085018261143c565b506040820151611886604085018261144b565b506060820151611899606085018261145a565b5060808201516118ac608085018261147a565b50505050565b5f610100820190506118c65f83018761184c565b6118d360a0830186611387565b6118e060c0830185611387565b81810360e08301526118f28184611320565b905095945050505050565b5f819050919050565b61190f816118fd565b8114611919575f80fd5b50565b5f8151905061192a81611906565b92915050565b5f6020828403121561194557611944610e50565b5b5f6119528482850161191c565b91505092915050565b5f60608201905061196e5f830186611824565b61197b6020830185611378565b6119886040830184611387565b949350505050565b7f736574746c65206e6174697665206661696c65640000000000000000000000005f82015250565b5f6119c4601483611645565b91506119cf82611990565b602082019050919050565b5f6020820190508181035f8301526119f1816119b8565b9050919050565b5f604082019050611a0b5f830185611378565b611a186020830184611387565b9392505050565b7f736574746c65206572633230206661696c6564000000000000000000000000005f82015250565b5f611a53601383611645565b9150611a5e82611a1f565b602082019050919050565b5f6020820190508181035f830152611a8081611a47565b905091905056fea2646970667358221220982b3ecf9ce61c8a6ad1aee3e6a6d7528a4e31a9ce4eb1a9d7893ef8efa2909864736f6c634300081a0033","linkReferences":{}},"methodIdentifiers":{"donate((address,address,uint24,int24,address),uint256,uint256,bytes)":"234266d7","manager()":"481c6a75","unlockCallback(bytes)":"91dd7346"},"id":101}