{"abi":[{"type":"constructor","inputs":[{"name":"_poolManager","type":"address","internalType":"contract IPoolManager"}],"stateMutability":"nonpayable"},{"type":"function","name":"afterAddLiquidity","inputs":[{"name":"sender","type":"address","internalType":"address"},{"name":"key","type":"tuple","internalType":"struct PoolKey","components":[{"name":"currency0","type":"address","internalType":"Currency"},{"name":"currency1","type":"address","internalType":"Currency"},{"name":"fee","type":"uint24","internalType":"uint24"},{"name":"tickSpacing","type":"int24","internalType":"int24"},{"name":"hooks","type":"address","internalType":"contract IHooks"}]},{"name":"params","type":"tuple","internalType":"struct ModifyLiquidityParams","components":[{"name":"tickLower","type":"int24","internalType":"int24"},{"name":"tickUpper","type":"int24","internalType":"int24"},{"name":"liquidityDelta","type":"int256","internalType":"int256"},{"name":"salt","type":"bytes32","internalType":"bytes32"}]},{"name":"delta","type":"int256","internalType":"BalanceDelta"},{"name":"feesAccrued","type":"int256","internalType":"BalanceDelta"},{"name":"hookData","type":"bytes","internalType":"bytes"}],"outputs":[{"name":"","type":"bytes4","internalType":"bytes4"},{"name":"","type":"int256","internalType":"BalanceDelta"}],"stateMutability":"nonpayable"},{"type":"function","name":"afterDonate","inputs":[{"name":"sender","type":"address","internalType":"address"},{"name":"key","type":"tuple","internalType":"struct PoolKey","components":[{"name":"currency0","type":"address","internalType":"Currency"},{"name":"currency1","type":"address","internalType":"Currency"},{"name":"fee","type":"uint24","internalType":"uint24"},{"name":"tickSpacing","type":"int24","internalType":"int24"},{"name":"hooks","type":"address","internalType":"contract IHooks"}]},{"name":"amount0","type":"uint256","internalType":"uint256"},{"name":"amount1","type":"uint256","internalType":"uint256"},{"name":"hookData","type":"bytes","internalType":"bytes"}],"outputs":[{"name":"","type":"bytes4","internalType":"bytes4"}],"stateMutability":"nonpayable"},{"type":"function","name":"afterInitialize","inputs":[{"name":"sender","type":"address","internalType":"address"},{"name":"key","type":"tuple","internalType":"struct PoolKey","components":[{"name":"currency0","type":"address","internalType":"Currency"},{"name":"currency1","type":"address","internalType":"Currency"},{"name":"fee","type":"uint24","internalType":"uint24"},{"name":"tickSpacing","type":"int24","internalType":"int24"},{"name":"hooks","type":"address","internalType":"contract IHooks"}]},{"name":"sqrtPriceX96","type":"uint160","internalType":"uint160"},{"name":"tick","type":"int24","internalType":"int24"}],"outputs":[{"name":"","type":"bytes4","internalType":"bytes4"}],"stateMutability":"nonpayable"},{"type":"function","name":"afterRemoveLiquidity","inputs":[{"name":"sender","type":"address","internalType":"address"},{"name":"key","type":"tuple","internalType":"struct PoolKey","components":[{"name":"currency0","type":"address","internalType":"Currency"},{"name":"currency1","type":"address","internalType":"Currency"},{"name":"fee","type":"uint24","internalType":"uint24"},{"name":"tickSpacing","type":"int24","internalType":"int24"},{"name":"hooks","type":"address","internalType":"contract IHooks"}]},{"name":"params","type":"tuple","internalType":"struct ModifyLiquidityParams","components":[{"name":"tickLower","type":"int24","internalType":"int24"},{"name":"tickUpper","type":"int24","internalType":"int24"},{"name":"liquidityDelta","type":"int256","internalType":"int256"},{"name":"salt","type":"bytes32","internalType":"bytes32"}]},{"name":"delta","type":"int256","internalType":"BalanceDelta"},{"name":"feesAccrued","type":"int256","internalType":"BalanceDelta"},{"name":"hookData","type":"bytes","internalType":"bytes"}],"outputs":[{"name":"","type":"bytes4","internalType":"bytes4"},{"name":"","type":"int256","internalType":"BalanceDelta"}],"stateMutability":"nonpayable"},{"type":"function","name":"afterSwap","inputs":[{"name":"sender","type":"address","internalType":"address"},{"name":"key","type":"tuple","internalType":"struct PoolKey","components":[{"name":"currency0","type":"address","internalType":"Currency"},{"name":"currency1","type":"address","internalType":"Currency"},{"name":"fee","type":"uint24","internalType":"uint24"},{"name":"tickSpacing","type":"int24","internalType":"int24"},{"name":"hooks","type":"address","internalType":"contract IHooks"}]},{"name":"params","type":"tuple","internalType":"struct SwapParams","components":[{"name":"zeroForOne","type":"bool","internalType":"bool"},{"name":"amountSpecified","type":"int256","internalType":"int256"},{"name":"sqrtPriceLimitX96","type":"uint160","internalType":"uint160"}]},{"name":"delta","type":"int256","internalType":"BalanceDelta"},{"name":"hookData","type":"bytes","internalType":"bytes"}],"outputs":[{"name":"","type":"bytes4","internalType":"bytes4"},{"name":"","type":"int128","internalType":"int128"}],"stateMutability":"nonpayable"},{"type":"function","name":"beforeAddLiquidity","inputs":[{"name":"sender","type":"address","internalType":"address"},{"name":"key","type":"tuple","internalType":"struct PoolKey","components":[{"name":"currency0","type":"address","internalType":"Currency"},{"name":"currency1","type":"address","internalType":"Currency"},{"name":"fee","type":"uint24","internalType":"uint24"},{"name":"tickSpacing","type":"int24","internalType":"int24"},{"name":"hooks","type":"address","internalType":"contract IHooks"}]},{"name":"params","type":"tuple","internalType":"struct ModifyLiquidityParams","components":[{"name":"tickLower","type":"int24","internalType":"int24"},{"name":"tickUpper","type":"int24","internalType":"int24"},{"name":"liquidityDelta","type":"int256","internalType":"int256"},{"name":"salt","type":"bytes32","internalType":"bytes32"}]},{"name":"hookData","type":"bytes","internalType":"bytes"}],"outputs":[{"name":"","type":"bytes4","internalType":"bytes4"}],"stateMutability":"nonpayable"},{"type":"function","name":"beforeDonate","inputs":[{"name":"sender","type":"address","internalType":"address"},{"name":"key","type":"tuple","internalType":"struct PoolKey","components":[{"name":"currency0","type":"address","internalType":"Currency"},{"name":"currency1","type":"address","internalType":"Currency"},{"name":"fee","type":"uint24","internalType":"uint24"},{"name":"tickSpacing","type":"int24","internalType":"int24"},{"name":"hooks","type":"address","internalType":"contract IHooks"}]},{"name":"amount0","type":"uint256","internalType":"uint256"},{"name":"amount1","type":"uint256","internalType":"uint256"},{"name":"hookData","type":"bytes","internalType":"bytes"}],"outputs":[{"name":"","type":"bytes4","internalType":"bytes4"}],"stateMutability":"nonpayable"},{"type":"function","name":"beforeInitialize","inputs":[{"name":"sender","type":"address","internalType":"address"},{"name":"key","type":"tuple","internalType":"struct PoolKey","components":[{"name":"currency0","type":"address","internalType":"Currency"},{"name":"currency1","type":"address","internalType":"Currency"},{"name":"fee","type":"uint24","internalType":"uint24"},{"name":"tickSpacing","type":"int24","internalType":"int24"},{"name":"hooks","type":"address","internalType":"contract IHooks"}]},{"name":"sqrtPriceX96","type":"uint160","internalType":"uint160"}],"outputs":[{"name":"","type":"bytes4","internalType":"bytes4"}],"stateMutability":"nonpayable"},{"type":"function","name":"beforeRemoveLiquidity","inputs":[{"name":"sender","type":"address","internalType":"address"},{"name":"key","type":"tuple","internalType":"struct PoolKey","components":[{"name":"currency0","type":"address","internalType":"Currency"},{"name":"currency1","type":"address","internalType":"Currency"},{"name":"fee","type":"uint24","internalType":"uint24"},{"name":"tickSpacing","type":"int24","internalType":"int24"},{"name":"hooks","type":"address","internalType":"contract IHooks"}]},{"name":"params","type":"tuple","internalType":"struct ModifyLiquidityParams","components":[{"name":"tickLower","type":"int24","internalType":"int24"},{"name":"tickUpper","type":"int24","internalType":"int24"},{"name":"liquidityDelta","type":"int256","internalType":"int256"},{"name":"salt","type":"bytes32","internalType":"bytes32"}]},{"name":"hookData","type":"bytes","internalType":"bytes"}],"outputs":[{"name":"","type":"bytes4","internalType":"bytes4"}],"stateMutability":"nonpayable"},{"type":"function","name":"beforeSwap","inputs":[{"name":"sender","type":"address","internalType":"address"},{"name":"key","type":"tuple","internalType":"struct PoolKey","components":[{"name":"currency0","type":"address","internalType":"Currency"},{"name":"currency1","type":"address","internalType":"Currency"},{"name":"fee","type":"uint24","internalType":"uint24"},{"name":"tickSpacing","type":"int24","internalType":"int24"},{"name":"hooks","type":"address","internalType":"contract IHooks"}]},{"name":"params","type":"tuple","internalType":"struct SwapParams","components":[{"name":"zeroForOne","type":"bool","internalType":"bool"},{"name":"amountSpecified","type":"int256","internalType":"int256"},{"name":"sqrtPriceLimitX96","type":"uint160","internalType":"uint160"}]},{"name":"hookData","type":"bytes","internalType":"bytes"}],"outputs":[{"name":"","type":"bytes4","internalType":"bytes4"},{"name":"","type":"int256","internalType":"BeforeSwapDelta"},{"name":"","type":"uint24","internalType":"uint24"}],"stateMutability":"nonpayable"},{"type":"function","name":"configs","inputs":[{"name":"","type":"bytes32","internalType":"PoolId"}],"outputs":[{"name":"splitBps","type":"uint16","internalType":"uint16"},{"name":"minInterval","type":"uint64","internalType":"uint64"},{"name":"minFees0","type":"uint128","internalType":"uint128"},{"name":"minFees1","type":"uint128","internalType":"uint128"},{"name":"targetToken","type":"address","internalType":"address"},{"name":"recipient","type":"address","internalType":"address"},{"name":"lower","type":"int24","internalType":"int24"},{"name":"upper","type":"int24","internalType":"int24"}],"stateMutability":"view"},{"type":"function","name":"getHookPermissions","inputs":[],"outputs":[{"name":"p","type":"tuple","internalType":"struct Hooks.Permissions","components":[{"name":"beforeInitialize","type":"bool","internalType":"bool"},{"name":"afterInitialize","type":"bool","internalType":"bool"},{"name":"beforeAddLiquidity","type":"bool","internalType":"bool"},{"name":"afterAddLiquidity","type":"bool","internalType":"bool"},{"name":"beforeRemoveLiquidity","type":"bool","internalType":"bool"},{"name":"afterRemoveLiquidity","type":"bool","internalType":"bool"},{"name":"beforeSwap","type":"bool","internalType":"bool"},{"name":"afterSwap","type":"bool","internalType":"bool"},{"name":"beforeDonate","type":"bool","internalType":"bool"},{"name":"afterDonate","type":"bool","internalType":"bool"},{"name":"beforeSwapReturnDelta","type":"bool","internalType":"bool"},{"name":"afterSwapReturnDelta","type":"bool","internalType":"bool"},{"name":"afterAddLiquidityReturnDelta","type":"bool","internalType":"bool"},{"name":"afterRemoveLiquidityReturnDelta","type":"bool","internalType":"bool"}]}],"stateMutability":"pure"},{"type":"function","name":"lastRunAt","inputs":[{"name":"","type":"bytes32","internalType":"PoolId"}],"outputs":[{"name":"","type":"uint64","internalType":"uint64"}],"stateMutability":"view"},{"type":"function","name":"poolManager","inputs":[],"outputs":[{"name":"","type":"address","internalType":"contract IPoolManager"}],"stateMutability":"view"},{"type":"function","name":"setConfig","inputs":[{"name":"key","type":"tuple","internalType":"struct PoolKey","components":[{"name":"currency0","type":"address","internalType":"Currency"},{"name":"currency1","type":"address","internalType":"Currency"},{"name":"fee","type":"uint24","internalType":"uint24"},{"name":"tickSpacing","type":"int24","internalType":"int24"},{"name":"hooks","type":"address","internalType":"contract IHooks"}]},{"name":"splitBps","type":"uint16","internalType":"uint16"},{"name":"minInterval","type":"uint64","internalType":"uint64"},{"name":"minFees0","type":"uint128","internalType":"uint128"},{"name":"minFees1","type":"uint128","internalType":"uint128"},{"name":"targetToken","type":"address","internalType":"address"},{"name":"recipient","type":"address","internalType":"address"},{"name":"lower","type":"int24","internalType":"int24"},{"name":"upper","type":"int24","internalType":"int24"}],"outputs":[],"stateMutability":"nonpayable"},{"type":"event","name":"ConfigSet","inputs":[{"name":"id","type":"bytes32","indexed":true,"internalType":"PoolId"},{"name":"cfg","type":"tuple","indexed":false,"internalType":"struct FeeSplitHook.Config","components":[{"name":"splitBps","type":"uint16","internalType":"uint16"},{"name":"minInterval","type":"uint64","internalType":"uint64"},{"name":"minFees0","type":"uint128","internalType":"uint128"},{"name":"minFees1","type":"uint128","internalType":"uint128"},{"name":"targetToken","type":"address","internalType":"address"},{"name":"recipient","type":"address","internalType":"address"},{"name":"lower","type":"int24","internalType":"int24"},{"name":"upper","type":"int24","internalType":"int24"}]}],"anonymous":false},{"type":"event","name":"FeeSplitTick","inputs":[{"name":"id","type":"bytes32","indexed":true,"internalType":"PoolId"},{"name":"nowTs","type":"uint64","indexed":false,"internalType":"uint64"}],"anonymous":false},{"type":"error","name":"HookNotImplemented","inputs":[]},{"type":"error","name":"NotPoolManager","inputs":[]}],"bytecode":{"object":"0x60a060405234801561000f575f80fd5b50604051612a9c380380612a9c8339818101604052810190610031919061057c565b80808073ffffffffffffffffffffffffffffffffffffffff1660808173ffffffffffffffffffffffffffffffffffffffff1681525050506100773061007e60201b60201c565b50506105a7565b61009b8161009061009e60201b60201c565b6100ba60201b60201c565b50565b6100a6610490565b60018160e001901515908115158152505090565b6100e56120008373ffffffffffffffffffffffffffffffffffffffff1661044960201b90919060201c565b1515815f0151151514158061012c57506101206110008373ffffffffffffffffffffffffffffffffffffffff1661044960201b90919060201c565b15158160200151151514155b80610169575061015d6108008373ffffffffffffffffffffffffffffffffffffffff1661044960201b90919060201c565b15158160400151151514155b806101a6575061019a6104008373ffffffffffffffffffffffffffffffffffffffff1661044960201b90919060201c565b15158160600151151514155b806101e357506101d76102008373ffffffffffffffffffffffffffffffffffffffff1661044960201b90919060201c565b15158160800151151514155b8061022057506102146101008373ffffffffffffffffffffffffffffffffffffffff1661044960201b90919060201c565b15158160a00151151514155b8061025c575061025060808373ffffffffffffffffffffffffffffffffffffffff1661044960201b90919060201c565b15158160c00151151514155b80610298575061028c60408373ffffffffffffffffffffffffffffffffffffffff1661044960201b90919060201c565b15158160e00151151514155b806102d557506102c860208373ffffffffffffffffffffffffffffffffffffffff1661044960201b90919060201c565b1515816101000151151514155b80610312575061030560108373ffffffffffffffffffffffffffffffffffffffff1661044960201b90919060201c565b1515816101200151151514155b8061034f575061034260088373ffffffffffffffffffffffffffffffffffffffff1661044960201b90919060201c565b1515816101400151151514155b8061038c575061037f60048373ffffffffffffffffffffffffffffffffffffffff1661044960201b90919060201c565b1515816101600151151514155b806103c957506103bc60028373ffffffffffffffffffffffffffffffffffffffff1661044960201b90919060201c565b1515816101800151151514155b8061040657506103f960018373ffffffffffffffffffffffffffffffffffffffff1661044960201b90919060201c565b1515816101a00151151514155b15610445576104448263e65af6a060e01b7bffffffffffffffffffffffffffffffffffffffffffffffffffffffff191661046e60201b90919060201c565b5b5050565b5f8082841673ffffffffffffffffffffffffffffffffffffffff161415905092915050565b815f5273ffffffffffffffffffffffffffffffffffffffff811660045260245ffd5b604051806101c001604052805f151581526020015f151581526020015f151581526020015f151581526020015f151581526020015f151581526020015f151581526020015f151581526020015f151581526020015f151581526020015f151581526020015f151581526020015f151581526020015f151581525090565b5f80fd5b5f73ffffffffffffffffffffffffffffffffffffffff82169050919050565b5f61053a82610511565b9050919050565b5f61054b82610530565b9050919050565b61055b81610541565b8114610565575f80fd5b50565b5f8151905061057681610552565b92915050565b5f602082840312156105915761059061050d565b5b5f61059e84828501610568565b91505092915050565b6080516124976106055f395f818161039e0152818161043c0152818161080f015281816108b401528181610959015281816109f601528181610a9c01528181610b3f01528181610ceb01528181610d100152610daa01526124975ff3fe608060405234801561000f575f80fd5b50600436106100f3575f3560e01c80639f063efc11610095578063ce8f607811610064578063ce8f6078146102e6578063dc4c90d31461031d578063dc98354e1461033b578063e1b4af691461036b576100f3565b80639f063efc14610236578063b47b2fb114610267578063b6a8b0fa14610298578063c4e833ce146102c8576100f3565b806332ad31f1116100d157806332ad31f114610173578063575e24b4146101a35780636c2bbe7e146101d55780636fe7e6eb14610206576100f3565b806321d0ee70146100f7578063259982e514610127578063301b21cc14610157575b5f80fd5b610111600480360381019061010c91906114c9565b61039b565b60405161011e9190611589565b60405180910390f35b610141600480360381019061013c91906114c9565b610439565b60405161014e9190611589565b60405180910390f35b610171600480360381019061016c9190611691565b6104d7565b005b61018d6004803603810190610188919061178c565b6107e6565b60405161019a91906117c6565b60405180910390f35b6101bd60048036038101906101b891906117fd565b61080a565b6040516101cc939291906118e2565b60405180910390f35b6101ef60048036038101906101ea9190611941565b6108b0565b6040516101fd9291906119fe565b60405180910390f35b610220600480360381019061021b9190611a4f565b610956565b60405161022d9190611589565b60405180910390f35b610250600480360381019061024b9190611941565b6109f2565b60405161025e9291906119fe565b60405180910390f35b610281600480360381019061027c9190611ab4565b610a98565b60405161028f929190611b68565b60405180910390f35b6102b260048036038101906102ad9190611bc2565b610b3c565b6040516102bf9190611589565b60405180910390f35b6102d0610bdc565b6040516102dd9190611d92565b60405180910390f35b61030060048036038101906102fb919061178c565b610bf8565b604051610314989796959493929190611de8565b60405180910390f35b610325610ce9565b6040516103329190611eb6565b60405180910390f35b61035560048036038101906103509190611ecf565b610d0d565b6040516103629190611589565b60405180910390f35b61038560048036038101906103809190611bc2565b610da7565b6040516103929190611589565b60405180910390f35b5f7f000000000000000000000000000000000000000000000000000000000000000073ffffffffffffffffffffffffffffffffffffffff163373ffffffffffffffffffffffffffffffffffffffff1614610421576040517fae18210a00000000000000000000000000000000000000000000000000000000815260040160405180910390fd5b61042e8686868686610e47565b905095945050505050565b5f7f000000000000000000000000000000000000000000000000000000000000000073ffffffffffffffffffffffffffffffffffffffff163373ffffffffffffffffffffffffffffffffffffffff16146104bf576040517fae18210a00000000000000000000000000000000000000000000000000000000815260040160405180910390fd5b6104cc8686868686610e7a565b905095945050505050565b6127108861ffff161115610520576040517f08c379a000000000000000000000000000000000000000000000000000000000815260040161051790611f79565b60405180910390fd5b5f61053a8a803603810190610535919061213b565b610ead565b90506040518061010001604052808a61ffff1681526020018967ffffffffffffffff168152602001886fffffffffffffffffffffffffffffffff168152602001876fffffffffffffffffffffffffffffffff1681526020018673ffffffffffffffffffffffffffffffffffffffff1681526020018573ffffffffffffffffffffffffffffffffffffffff1681526020018460020b81526020018360020b8152505f808381526020019081526020015f205f820151815f015f6101000a81548161ffff021916908361ffff1602179055506020820151815f0160026101000a81548167ffffffffffffffff021916908367ffffffffffffffff1602179055506040820151815f01600a6101000a8154816fffffffffffffffffffffffffffffffff02191690836fffffffffffffffffffffffffffffffff1602179055506060820151816001015f6101000a8154816fffffffffffffffffffffffffffffffff02191690836fffffffffffffffffffffffffffffffff1602179055506080820151816002015f6101000a81548173ffffffffffffffffffffffffffffffffffffffff021916908373ffffffffffffffffffffffffffffffffffffffff16021790555060a0820151816003015f6101000a81548173ffffffffffffffffffffffffffffffffffffffff021916908373ffffffffffffffffffffffffffffffffffffffff16021790555060c08201518160030160146101000a81548162ffffff021916908360020b62ffffff16021790555060e08201518160030160176101000a81548162ffffff021916908360020b62ffffff160217905550905050807f0dbd113884c26dc07a1c40615fc79728e7885d754e40aa57925a7716956c3d415f808481526020019081526020015f206040516107d291906123df565b60405180910390a250505050505050505050565b6001602052805f5260405f205f915054906101000a900467ffffffffffffffff1681565b5f805f7f000000000000000000000000000000000000000000000000000000000000000073ffffffffffffffffffffffffffffffffffffffff163373ffffffffffffffffffffffffffffffffffffffff1614610892576040517fae18210a00000000000000000000000000000000000000000000000000000000815260040160405180910390fd5b61089f8888888888610eb9565b925092509250955095509592505050565b5f807f000000000000000000000000000000000000000000000000000000000000000073ffffffffffffffffffffffffffffffffffffffff163373ffffffffffffffffffffffffffffffffffffffff1614610937576040517fae18210a00000000000000000000000000000000000000000000000000000000815260040160405180910390fd5b61094689898989898989610eee565b9150915097509795505050505050565b5f7f000000000000000000000000000000000000000000000000000000000000000073ffffffffffffffffffffffffffffffffffffffff163373ffffffffffffffffffffffffffffffffffffffff16146109dc576040517fae18210a00000000000000000000000000000000000000000000000000000000815260040160405180910390fd5b6109e885858585610f22565b9050949350505050565b5f807f000000000000000000000000000000000000000000000000000000000000000073ffffffffffffffffffffffffffffffffffffffff163373ffffffffffffffffffffffffffffffffffffffff1614610a79576040517fae18210a00000000000000000000000000000000000000000000000000000000815260040160405180910390fd5b610a8889898989898989610f55565b9150915097509795505050505050565b5f807f000000000000000000000000000000000000000000000000000000000000000073ffffffffffffffffffffffffffffffffffffffff163373ffffffffffffffffffffffffffffffffffffffff1614610b1f576040517fae18210a00000000000000000000000000000000000000000000000000000000815260040160405180910390fd5b610b2d888888888888610f89565b91509150965096945050505050565b5f7f000000000000000000000000000000000000000000000000000000000000000073ffffffffffffffffffffffffffffffffffffffff163373ffffffffffffffffffffffffffffffffffffffff1614610bc2576040517fae18210a00000000000000000000000000000000000000000000000000000000815260040160405180910390fd5b610bd08787878787876112a7565b90509695505050505050565b610be4611340565b60018160e001901515908115158152505090565b5f602052805f5260405f205f91509050805f015f9054906101000a900461ffff1690805f0160029054906101000a900467ffffffffffffffff1690805f01600a9054906101000a90046fffffffffffffffffffffffffffffffff1690806001015f9054906101000a90046fffffffffffffffffffffffffffffffff1690806002015f9054906101000a900473ffffffffffffffffffffffffffffffffffffffff1690806003015f9054906101000a900473ffffffffffffffffffffffffffffffffffffffff16908060030160149054906101000a900460020b908060030160179054906101000a900460020b905088565b7f000000000000000000000000000000000000000000000000000000000000000081565b5f7f000000000000000000000000000000000000000000000000000000000000000073ffffffffffffffffffffffffffffffffffffffff163373ffffffffffffffffffffffffffffffffffffffff1614610d93576040517fae18210a00000000000000000000000000000000000000000000000000000000815260040160405180910390fd5b610d9e8484846112da565b90509392505050565b5f7f000000000000000000000000000000000000000000000000000000000000000073ffffffffffffffffffffffffffffffffffffffff163373ffffffffffffffffffffffffffffffffffffffff1614610e2d576040517fae18210a00000000000000000000000000000000000000000000000000000000815260040160405180910390fd5b610e3b87878787878761130d565b90509695505050505050565b5f6040517f0a85dc2900000000000000000000000000000000000000000000000000000000815260040160405180910390fd5b5f6040517f0a85dc2900000000000000000000000000000000000000000000000000000000815260040160405180910390fd5b5f60a082209050919050565b5f805f6040517f0a85dc2900000000000000000000000000000000000000000000000000000000815260040160405180910390fd5b5f806040517f0a85dc2900000000000000000000000000000000000000000000000000000000815260040160405180910390fd5b5f6040517f0a85dc2900000000000000000000000000000000000000000000000000000000815260040160405180910390fd5b5f806040517f0a85dc2900000000000000000000000000000000000000000000000000000000815260040160405180910390fd5b5f805f610fa588803603810190610fa0919061213b565b610ead565b90505f805f8381526020019081526020015f20604051806101000160405290815f82015f9054906101000a900461ffff1661ffff1661ffff1681526020015f820160029054906101000a900467ffffffffffffffff1667ffffffffffffffff1667ffffffffffffffff1681526020015f8201600a9054906101000a90046fffffffffffffffffffffffffffffffff166fffffffffffffffffffffffffffffffff166fffffffffffffffffffffffffffffffff168152602001600182015f9054906101000a90046fffffffffffffffffffffffffffffffff166fffffffffffffffffffffffffffffffff166fffffffffffffffffffffffffffffffff168152602001600282015f9054906101000a900473ffffffffffffffffffffffffffffffffffffffff1673ffffffffffffffffffffffffffffffffffffffff1673ffffffffffffffffffffffffffffffffffffffff168152602001600382015f9054906101000a900473ffffffffffffffffffffffffffffffffffffffff1673ffffffffffffffffffffffffffffffffffffffff1673ffffffffffffffffffffffffffffffffffffffff1681526020016003820160149054906101000a900460020b60020b60020b81526020016003820160179054906101000a900460020b60020b60020b8152505090505f816020015167ffffffffffffffff16036111b45763b47b2fb160e01b5f93509350505061129c565b5f429050816020015160015f8581526020019081526020015f205f9054906101000a900467ffffffffffffffff166111ec9190612426565b67ffffffffffffffff168167ffffffffffffffff16101561121c5763b47b2fb160e01b5f9450945050505061129c565b827f5f5b219d59ccc6242569606e99310e63f218fe45e04a81553bf7b501df2b549e8260405161124c91906117c6565b60405180910390a28060015f8581526020019081526020015f205f6101000a81548167ffffffffffffffff021916908367ffffffffffffffff16021790555063b47b2fb160e01b5f945094505050505b965096945050505050565b5f6040517f0a85dc2900000000000000000000000000000000000000000000000000000000815260040160405180910390fd5b5f6040517f0a85dc2900000000000000000000000000000000000000000000000000000000815260040160405180910390fd5b5f6040517f0a85dc2900000000000000000000000000000000000000000000000000000000815260040160405180910390fd5b604051806101c001604052805f151581526020015f151581526020015f151581526020015f151581526020015f151581526020015f151581526020015f151581526020015f151581526020015f151581526020015f151581526020015f151581526020015f151581526020015f151581526020015f151581525090565b5f604051905090565b5f80fd5b5f80fd5b5f73ffffffffffffffffffffffffffffffffffffffff82169050919050565b5f6113f7826113ce565b9050919050565b611407816113ed565b8114611411575f80fd5b50565b5f81359050611422816113fe565b92915050565b5f80fd5b5f60a0828403121561144157611440611428565b5b81905092915050565b5f6080828403121561145f5761145e611428565b5b81905092915050565b5f80fd5b5f80fd5b5f80fd5b5f8083601f84011261148957611488611468565b5b8235905067ffffffffffffffff8111156114a6576114a561146c565b5b6020830191508360018202830111156114c2576114c1611470565b5b9250929050565b5f805f805f61016086880312156114e3576114e26113c6565b5b5f6114f088828901611414565b95505060206115018882890161142c565b94505060c06115128882890161144a565b93505061014086013567ffffffffffffffff811115611534576115336113ca565b5b61154088828901611474565b92509250509295509295909350565b5f7fffffffff0000000000000000000000000000000000000000000000000000000082169050919050565b6115838161154f565b82525050565b5f60208201905061159c5f83018461157a565b92915050565b5f61ffff82169050919050565b6115b8816115a2565b81146115c2575f80fd5b50565b5f813590506115d3816115af565b92915050565b5f67ffffffffffffffff82169050919050565b6115f5816115d9565b81146115ff575f80fd5b50565b5f81359050611610816115ec565b92915050565b5f6fffffffffffffffffffffffffffffffff82169050919050565b61163a81611616565b8114611644575f80fd5b50565b5f8135905061165581611631565b92915050565b5f8160020b9050919050565b6116708161165b565b811461167a575f80fd5b50565b5f8135905061168b81611667565b92915050565b5f805f805f805f805f6101a08a8c0312156116af576116ae6113c6565b5b5f6116bc8c828d0161142c565b99505060a06116cd8c828d016115c5565b98505060c06116de8c828d01611602565b97505060e06116ef8c828d01611647565b9650506101006117018c828d01611647565b9550506101206117138c828d01611414565b9450506101406117258c828d01611414565b9350506101606117378c828d0161167d565b9250506101806117498c828d0161167d565b9150509295985092959850929598565b5f819050919050565b61176b81611759565b8114611775575f80fd5b50565b5f8135905061178681611762565b92915050565b5f602082840312156117a1576117a06113c6565b5b5f6117ae84828501611778565b91505092915050565b6117c0816115d9565b82525050565b5f6020820190506117d95f8301846117b7565b92915050565b5f606082840312156117f4576117f3611428565b5b81905092915050565b5f805f805f6101408688031215611817576118166113c6565b5b5f61182488828901611414565b95505060206118358882890161142c565b94505060c0611846888289016117df565b93505061012086013567ffffffffffffffff811115611868576118676113ca565b5b61187488828901611474565b92509250509295509295909350565b5f819050919050565b5f819050919050565b5f6118af6118aa6118a584611883565b61188c565b611883565b9050919050565b6118bf81611895565b82525050565b5f62ffffff82169050919050565b6118dc816118c5565b82525050565b5f6060820190506118f55f83018661157a565b61190260208301856118b6565b61190f60408301846118d3565b949350505050565b61192081611883565b811461192a575f80fd5b50565b5f8135905061193b81611917565b92915050565b5f805f805f805f6101a0888a03121561195d5761195c6113c6565b5b5f61196a8a828b01611414565b975050602061197b8a828b0161142c565b96505060c061198c8a828b0161144a565b95505061014061199e8a828b0161192d565b9450506101606119b08a828b0161192d565b93505061018088013567ffffffffffffffff8111156119d2576119d16113ca565b5b6119de8a828b01611474565b925092505092959891949750929550565b6119f881611895565b82525050565b5f604082019050611a115f83018561157a565b611a1e60208301846119ef565b9392505050565b611a2e816113ce565b8114611a38575f80fd5b50565b5f81359050611a4981611a25565b92915050565b5f805f806101008587031215611a6857611a676113c6565b5b5f611a7587828801611414565b9450506020611a868782880161142c565b93505060c0611a9787828801611a3b565b92505060e0611aa88782880161167d565b91505092959194509250565b5f805f805f806101608789031215611acf57611ace6113c6565b5b5f611adc89828a01611414565b9650506020611aed89828a0161142c565b95505060c0611afe89828a016117df565b945050610120611b1089828a0161192d565b93505061014087013567ffffffffffffffff811115611b3257611b316113ca565b5b611b3e89828a01611474565b92509250509295509295509295565b5f81600f0b9050919050565b611b6281611b4d565b82525050565b5f604082019050611b7b5f83018561157a565b611b886020830184611b59565b9392505050565b5f819050919050565b611ba181611b8f565b8114611bab575f80fd5b50565b5f81359050611bbc81611b98565b92915050565b5f805f805f806101208789031215611bdd57611bdc6113c6565b5b5f611bea89828a01611414565b9650506020611bfb89828a0161142c565b95505060c0611c0c89828a01611bae565b94505060e0611c1d89828a01611bae565b93505061010087013567ffffffffffffffff811115611c3f57611c3e6113ca565b5b611c4b89828a01611474565b92509250509295509295509295565b5f8115159050919050565b611c6e81611c5a565b82525050565b6101c082015f820151611c895f850182611c65565b506020820151611c9c6020850182611c65565b506040820151611caf6040850182611c65565b506060820151611cc26060850182611c65565b506080820151611cd56080850182611c65565b5060a0820151611ce860a0850182611c65565b5060c0820151611cfb60c0850182611c65565b5060e0820151611d0e60e0850182611c65565b50610100820151611d23610100850182611c65565b50610120820151611d38610120850182611c65565b50610140820151611d4d610140850182611c65565b50610160820151611d62610160850182611c65565b50610180820151611d77610180850182611c65565b506101a0820151611d8c6101a0850182611c65565b50505050565b5f6101c082019050611da65f830184611c74565b92915050565b611db5816115a2565b82525050565b611dc481611616565b82525050565b611dd3816113ed565b82525050565b611de28161165b565b82525050565b5f61010082019050611dfc5f83018b611dac565b611e09602083018a6117b7565b611e166040830189611dbb565b611e236060830188611dbb565b611e306080830187611dca565b611e3d60a0830186611dca565b611e4a60c0830185611dd9565b611e5760e0830184611dd9565b9998505050505050505050565b5f611e7e611e79611e74846113ce565b61188c565b6113ce565b9050919050565b5f611e8f82611e64565b9050919050565b5f611ea082611e85565b9050919050565b611eb081611e96565b82525050565b5f602082019050611ec95f830184611ea7565b92915050565b5f805f60e08486031215611ee657611ee56113c6565b5b5f611ef386828701611414565b9350506020611f048682870161142c565b92505060c0611f1586828701611a3b565b9150509250925092565b5f82825260208201905092915050565b7f73706c69744270733e31303025000000000000000000000000000000000000005f82015250565b5f611f63600d83611f1f565b9150611f6e82611f2f565b602082019050919050565b5f6020820190508181035f830152611f9081611f57565b9050919050565b5f80fd5b5f601f19601f8301169050919050565b7f4e487b71000000000000000000000000000000000000000000000000000000005f52604160045260245ffd5b611fe182611f9b565b810181811067ffffffffffffffff8211171561200057611fff611fab565b5b80604052505050565b5f6120126113bd565b905061201e8282611fd8565b919050565b61202c816113ed565b8114612036575f80fd5b50565b5f8135905061204781612023565b92915050565b612056816118c5565b8114612060575f80fd5b50565b5f813590506120718161204d565b92915050565b5f612081826113ed565b9050919050565b61209181612077565b811461209b575f80fd5b50565b5f813590506120ac81612088565b92915050565b5f60a082840312156120c7576120c6611f97565b5b6120d160a0612009565b90505f6120e084828501612039565b5f8301525060206120f384828501612039565b602083015250604061210784828501612063565b604083015250606061211b8482850161167d565b606083015250608061212f8482850161209e565b60808301525092915050565b5f60a082840312156121505761214f6113c6565b5b5f61215d848285016120b2565b91505092915050565b5f815f1c9050919050565b5f61ffff82169050919050565b5f61219061218b83612166565b612171565b9050919050565b6121a0816115a2565b82525050565b5f8160101c9050919050565b5f67ffffffffffffffff82169050919050565b5f6121d76121d2836121a6565b6121b2565b9050919050565b6121e7816115d9565b82525050565b5f8160501c9050919050565b5f6fffffffffffffffffffffffffffffffff82169050919050565b5f612226612221836121ed565b6121f9565b9050919050565b61223681611616565b82525050565b5f61224e61224983612166565b6121f9565b9050919050565b5f73ffffffffffffffffffffffffffffffffffffffff82169050919050565b5f61228661228183612166565b612255565b9050919050565b612296816113ed565b82525050565b5f8160a01c9050919050565b5f8160020b9050919050565b5f6122c66122c18361229c565b6122a8565b9050919050565b6122d68161165b565b82525050565b5f8160b81c9050919050565b5f6122fa6122f5836122dc565b6122a8565b9050919050565b61010082015f8083015490506123168161217e565b6123225f860182612197565b5061232c816121c5565b61233960208601826121de565b5061234381612214565b612350604086018261222d565b50600183015490506123618161223c565b61236e606086018261222d565b506002830154905061237f81612274565b61238c608086018261228d565b506003830154905061239d81612274565b6123aa60a086018261228d565b506123b4816122b4565b6123c160c08601826122cd565b506123cb816122e8565b6123d860e08601826122cd565b5050505050565b5f610100820190506123f35f830184612301565b92915050565b7f4e487b71000000000000000000000000000000000000000000000000000000005f52601160045260245ffd5b5f612430826115d9565b915061243b836115d9565b9250828201905067ffffffffffffffff81111561245b5761245a6123f9565b5b9291505056fea2646970667358221220006fda7f819508b1ffcbb86c455864d5b09c65d7753b7d833cd3049a81af9e4664736f6c634300081a0033","linkReferences":{}},"methodIdentifiers":{"afterAddLiquidity(address,(address,address,uint24,int24,address),(int24,int24,int256,bytes32),int256,int256,bytes)":"9f063efc","afterDonate(address,(address,address,uint24,int24,address),uint256,uint256,bytes)":"e1b4af69","afterInitialize(address,(address,address,uint24,int24,address),uint160,int24)":"6fe7e6eb","afterRemoveLiquidity(address,(address,address,uint24,int24,address),(int24,int24,int256,bytes32),int256,int256,bytes)":"6c2bbe7e","afterSwap(address,(address,address,uint24,int24,address),(bool,int256,uint160),int256,bytes)":"b47b2fb1","beforeAddLiquidity(address,(address,address,uint24,int24,address),(int24,int24,int256,bytes32),bytes)":"259982e5","beforeDonate(address,(address,address,uint24,int24,address),uint256,uint256,bytes)":"b6a8b0fa","beforeInitialize(address,(address,address,uint24,int24,address),uint160)":"dc98354e","beforeRemoveLiquidity(address,(address,address,uint24,int24,address),(int24,int24,int256,bytes32),bytes)":"21d0ee70","beforeSwap(address,(address,address,uint24,int24,address),(bool,int256,uint160),bytes)":"575e24b4","configs(bytes32)":"ce8f6078","getHookPermissions()":"c4e833ce","lastRunAt(bytes32)":"32ad31f1","poolManager()":"dc4c90d3","setConfig((address,address,uint24,int24,address),uint16,uint64,uint128,uint128,address,address,int24,int24)":"301b21cc"},"id":102}